:04000000FBEF13F00F
:08000800046ED8CF05F0E0CF33
:1000100006F00001E9CF0CF0EACF07F0E1CF08F0DD
:10002000E2CF09F0D9CF0AF0DACF0BF0F3CF12F01C
:10003000F4CF13F0FACF14F0F5CF15F0F6CF16F099
:10004000F7CF17F000C00EF001C00FF002C010F0A3
:1000500003C011F0F2AA30EF00F0F2B4F0EF02F0BA
:100060009DA036EF00F09EB09DEF01F09DA23CEF09
:1000700000F09EB213EF02F0F2A842EF00F0F2B2ED
:1000800036EF02F0F0A648EF00F0F0B06AEF02F0B1
:10009000F0A84EEF00F0F0B29EEF02F0F2A654EF9F
:1000A00000F0F2B0D2EF02F09DAA5AEF00F09EBA33
:1000B0002CEF03F00EC000F00FC001F010C002F0F2
:1000C00011C003F00CC0E9FF07C0EAFF078E08C0AB
:1000D000E1FF09C0E2FF0AC0D9FF0BC0DAFF12C07E
:1000E000F3FF13C0F4FF14C0FAFF15C0F5FF16C0EC
:1000F000F6FF17C0F7FF045006C0E0FF05C0D8FFA9
:100100001000F76A120FF66E010EF7220900F55083
:1001100012000001020004050706F76A2A0FF66EB6
:10012000010EF7220900F550120000C1814001C004
:10013000804101C0804100C1814001C0804100C1B7
:10014000814000C1814001C0804101C0804100C1A7
:10015000814000C1814001C0804100C1814001C097
:10016000804101C0804100C1814001C0804100C187
:10017000814000C1814001C0804100C1814001C077
:10018000804101C0804100C1814000C1814001C067
:10019000804101C0804100C1814001C0804100C157
:1001A000814000C1814001C0804101C0804100C147
:1001B000814000C1814001C0804100C1814001C037
:1001C000804101C0804100C1814000C1814001C027
:1001D000804101C0804100C1814001C0804100C117
:1001E000814000C1814001C0804100C1814001C007
:1001F000804101C0804100C1814001C0804100C1F7
:10020000814000C1814001C0804101C0804100C1E6
:10021000814000C1814001C0804100C1814001C0D6
:10022000804101C0804100C18140F76A3A0FF66EFB
:10023000020EF7220900F550120000C0C101C303ED
:1002400002C2C60607C705C5C404CC0C0DCD0FCF2E
:10025000CE0E0ACACB0BC90908C8D81819D91BDB9E
:10026000DA1A1EDEDF1FDD1D1CDC14D4D515D717EE
:1002700016D6D21213D311D1D010F03031F133F39E
:10028000F23236F6F737F53534F43CFCFD3DFF3FEE
:100290003EFEFA3A3BFB39F9F83828E8E929EB2B1E
:1002A0002AEAEE2E2FEF2DEDEC2CE42425E527E7AE
:1002B000E62622E2E323E12120E0A06061A163A31E
:1002C000A26266A6A767A56564A46CACAD6DAF6FAE
:1002D0006EAEAA6A6BAB69A9A86878B8B979BB7B1E
:1002E0007ABABE7E7FBF7DBDBC7CB47475B577B76E
:1002F000B67672B2B373B17170B05090915193539E
:10030000529296565797559594549C5C5D9D5F9F6D
:100310009E5E5A9A9B5B99595898884849894B8B9D
:100320008A4A4E8E8F4F8D4D4C8C4484854587472D
:10033000468682424383418180409E90B10ECF6EBB
:10034000E00ECE6E959A8C8A0101803D04D0813DED
:1003500002D03E6A3D6A823D04D0833D02D0406AAD
:100360003F6A843D04D0853D02D0426A416A7C3DAB
:1003700003D07D3D01D003D07C2BD8B47D2BEC3D48
:1003800003D0ED3D01D003D0EC2BD8B4ED2BF22BF4
:10039000F25164080EE1F26B942BD8B4952B3150D6
:1003A000955D07E303E13050945D03E39387956B1C
:1003B000946BEE2BD8B4EF2BEE5170080DE1EF519A
:1003C00017080AE1EF6BEE6B7A3D03D07B3D01D05D
:1003D00003D07A2BD8B47B2B93A303D09393F16BE8
:1003E000F06BF02BD8B4F12B2E50F05D06E12F50BE
:1003F000F15D03E1F16BF06B9381915303E1949410
:100400008B9403D094948B849107925303E1949638
:100410008B9603D094968B869207959A8C9A9E9091
:1004200000015AEF00F0010190A108D0803D03D0F7
:10043000813D01D003D0802BD8B4812B90A308D06C
:10044000823D03D0833D01D003D0822BD8B4832BCF
:1004500090A508D0843D03D0853D01D003D0842BE6
:10046000D8B4852B9E9200015AEF00F04F2AD8B4E1
:10047000502A010E5526D8B0562AD8B4572AD8B4D7
:10048000582A0101F3A11CD0909181C13EF080C196
:100490003DF03E50445C08E303E143503D5C04E220
:1004A0003EC044F03DC043F04A503E5C08E303E1E7
:1004B0003D50495C04E23EC04AF03DC049F0F39132
:1004C000F3B104D0816B806B9081F381F2920001D3
:1004D0005AEF00F0512AD8B4522A010E5926D8B04A
:1004E0005A2AD8B45B2AD8B45C2A0101F3A31CD0E1
:1004F000909383C140F082C13FF04050465C08E3D6
:1005000003E145503F5C04E240C046F03FC045F087
:100510004C50405C08E303E13F504B5C04E240C0B8
:100520004CF03FC04BF0F393F3B304D0836B826B7A
:100530009083F383F09000015AEF00F0532AD8B46F
:10054000542A010E5D26D8B05E2AD8B45F2AD8B4EA
:10055000602A0101F3A51CD0909585C142F084C1A9
:1005600041F04250485C08E303E14750415C04E23B
:1005700042C048F041C047F04E50425C08E303E1FE
:1005800041504D5C04E242C04EF041C04DF0F39545
:10059000F3B504D0856B846B9085F385F0920001F0
:1005A0005AEF00F081CF7BF30101F4B909D00301C8
:1005B0007BB902D0010104D001019387956B946B44
:1005C0007BC3F4F1F29000015AEF00F0F29A0301BC
:1005D0007C5304E0D76AD66AF294F28A00011200D2
:1005E0000101F65102080AE1F75308E1F85306E168
:1005F000F3B704D0020EFA5FF38701D0F397F869DE
:10060000F769F66B03017C6B0001E0DFF2945AEFAF
:1006100000F09EAAFED7ABCFF5F10101AECF01F0FD
:10062000F5A302D0AB98AB88000112000101F8518C
:1006300003017C197D6F036A7D5100016EDD016E3F
:100640000101F7510118F86F036A03017D510001A0
:10065000ECDDE8CFF7F11200DCDF01C07BF3010134
:100660007F5322E0050E926F325201E14AD0FDC263
:10067000FCF2FEC2FDF2FFC2FEF27BC3FFF20201FA
:10068000FC5123080FE1FD51325C0CE1FEC203F086
:10069000FF51335C07E10350345C04E101019387AF
:1006A000956B946B01012DD0F3B72BD0F65308E175
:1006B000F869F7697BC3F9F1F62BFA6BFC6B17D07D
:1006C000F62D04D07BC3FBF1F62B11D0F6510208B6
:1006D0000EE1FA3D02D0FE0EFA6FFD0EFA25E96E2C
:1006E000010EEA6ED8B0EA2A7BC3EFFFFA2B7BC378
:1006F0007CF300019BDF010E03017C6F000166DFCC
:1007000001019E9A00015AEF00F00301765178032F
:10071000F3CF01F0F4CF00F07903F35000267751C6
:100720007803F3500020026E00011200016603D02E
:10073000026602D007D0022A00C0EEFF012EFCD7CD
:10074000022EFAD742EF04F0030EEA6E710EE96E44
:10075000EF500DE0020E016E006A002EFED7012E52
:10076000FBD7970E006E002EFED7EF2EF3D71200A8
:10077000720ED36ED350C150C00B1709C16EC0505A
:10078000C00B0709C06EC08EC2800101916B926BD5
:100790009391939393959397956B946B0301056B4A
:1007A0000551020856E3036A05C302F0D8900236E9
:1007B000033602503D0FE96E000E0320EA6EEC6A2C
:1007C000ED52EF6A036A05C302F0D8900236033691
:1007D0000250430FE96E000E0320EA6EEC68ED5202
:1007E000EF68036A05C302F0D89002360336025060
:1007F000490FE96E000E0320EA6EEC6AED52EF6AD3
:10080000036A05C302F0D8900236033602504F0F38
:10081000E96E000E0320EA6EEC6AED52EF6A776B28
:1008200005C376F3796B040E786F00016EDF01501B
:10083000550FE96E000E0220EA6EEE52EE52EC6A9F
:10084000ED52EF6AED52EF6AED52EF6A0301052BAC
:10085000A7D70101736B726B756B746B776B766BDB
:10086000796B786B7B6B7A6B7D6B7C6B716B7E6B62
:10087000010EEA6E960EE96E006A026A580E016E6B
:10088000000154D70101ED69EC69F19CF288F19AFD
:10089000F086F198F088F286000E0509CA6E300ED7
:1008A000CB6E9D82850ECD6EB10ECF6EE50ECE6EF7
:1008B0009D8095928C92F19E0E0E0301716F000146
:1008C00043DF938C01017F6B81AC7F2B00012CEF08
:1008D00014F003010E6B0DC303F00C51D8B40D07D7
:1008E0000C070F6F03C010F30F5302E1105330E0F9
:1008F0000BC303F00A51E96E03C0EAFF0951036E0E
:100900000851082BD8B4092B116F03C012F3F2CF92
:1009100013F3F29E11C3A9FFA69CA69EA680A85021
:1009200013BFF28EEF6E0BC303F00A51E96E03C0E2
:10093000EAFFEFCF0FF30EC320F30FC321F32051D3
:100940002119016E01C00EF30A2BD8B40B2BC3D7AB
:100950000EC301F0000161EF05F003011E6B1DC322
:1009600003F01C51D8B41D071C071F6F03C020F3F0
:100970001F5302E120533CE01BC303F01A51E96E00
:1009800003C0EAFFEFCF1FF31EC320F31FC321F301
:1009900020512119016E01C01EF31951036E185127
:1009A000182BD8B4192B1F6F03C020F31B51036EF3
:1009B0001A511A2BD8B41B2BE96E03C0EAFFEFCFF4
:1009C00021F31FC3A9FF21C3A8FFA69CA69EA6844E
:1009D000F250006EF29E0F01550EA76EAA0EA76E82
:1009E000A682A6B2FED7A6940050F2120301B7D792
:1009F0001EC301F000010DEF05F00301176B200E7F
:100A0000166F196B020E186F17C31BF316C31AF378
:100A10001D6B1D0E1C6F0001A0D701C015F3A96A44
:100A200015C3A8FFA69CA69EA684F250006EF29E57
:100A30000F01550EA76EAA0EA76EA682A6B2FED70C
:100A4000A6940050F21200011200960E0101916F5F
:100A5000180E206E010E216E226A5A0E236E260E8B
:100A6000256E940E246E266A276A286A296A2A6AE5
:100A70002B6A2C6A2D6A2F6A140E2E6E316A3C0E78
:100A8000306E326A346A336A356A010E366E376EFA
:100A9000386E3A6A640E396E3C6A3B6E0001ADDF17
:100AA00012000301076B200E066F096B020E086F20
:100AB00007C30BF306C30AF30D6B1D0E0C6F000189
:100AC00008D701C005F3F2CF06F3F29EA96AA69CEF
:100AD000A69EA680A850030106BFF28E055D03E026
:100AE0000001B3DF030100012EEF14F09EAA02D033
:100AF00090DDFCD7949A8B9A9D8A120094988B98DB
:100B0000F5DFC40ED56EC00EF21261EF14F00101D4
:100B1000712B71510F0801E2716B0301056B0551D7
:100B2000070854E30551030803E194908B8002D039
:100B300094908B90036A0551000181EC00F0030151
:100B4000066F0635006E0036FC0E0016C250C30B51
:100B50000010C26E776B05C376F3796B200E786F49
:100B60000001D3DD02C003F00150340F0301066F12
:100B7000000E0220076F036A010171C102F0D890D4
:100B800002360336025003010625016E0751032287
:100B900001503D0FE96E000E0320EA6EC282C2B220
:100BA000FED7C3CFEFFFC4CFECFF036A05C302F04B
:100BB000D890023603360250610FE96E000E032012
:100BC000EA6EEC6AED52EF6A052BA9D7000112001C
:100BD000F29CF29EF2BEFDD70301776B71C376F3F0
:100BE000796B040E786F000190DD02C003F00150B4
:100BF000550FE96E000E0220EA6EEFCF00F0ECCF49
:100C000001F0ECCF02F0ECCF03F003C075F302C0AB
:100C100074F301C073F300C072F3C00EF21272C31A
:100C200000F073C301F074C302F075C303F0120047
:100C30000301736B726B746B74510F082BE3776B4A
:100C400071C376F3796B200E786F00015EDD02C010
:100C500003F00150340F0301756F000E0220766F10
:100C6000036A74C302F0D890023603360250752529
:100C7000016E7651032201503D0FE96E000E0320F4
:100C8000EA6EECCF03F0ED52EF507227035073235E
:100C9000742BD2D7080E7225756F000E7321766FF4
:100CA0007631036E7531026E033202320332023244
:100CB000033202320F0E031602C001F003C002F02D
:100CC0000001120003017669756973517307000A08
:100CD00026E072C303F07151712BD8B4722BE96E08
:100CE00003C0EAFFEF50751B746B7451070816E3DD
:100CF0007551010B006E036A005003100AE0D89092
:100D00007631786F7531010A756F7851A00A766F68
:100D100003D0D89076337533742BE7D7D6D775C305
:100D200001F076C302F00001A0EF08F09EA8FED704
:100D3000AD6E1200F29CF29EF2BEFDD7506A4F6A71
:100D4000526A516A546A536A4468436846684568FF
:100D5000486847684A6A496A4C6A4B6A4E6A4D6AF3
:100D600001017D6B7C6BC00EF21200011200320E8D
:100D70000101916F230E0301056F23C006F325C007
:100D800007F324C008F3620E096F170E0A6F79C1CA
:100D90000BF3030178C10CF30301696B695102087D
:100DA000D8A03BD169510C0DF350080F6A6F036A4C
:100DB0006A51050F016E030E032203C072F3036A2A
:100DC00069C302F0D8900236033602504F0FE96E25
:100DD000000E0320EA6EECCF74F3ED52EFCF73F305
:100DE00072C3EAFF01C0E9FF74C3EFFF010E6A2579
:100DF000036A050F016E030E032203C072F3036A38
:100E000069C302F0D8900236033602504F0FE96EE4
:100E1000000E0320EA6EECCF74F3ED52EFCF73F3C4
:100E200072C3EAFF01C0E9FF73C3EFFF020E6A2538
:100E3000036A050F016E030E032203C072F3036AF7
:100E400069C302F0D8900236033602503D0FE96EB6
:100E5000000E0320EA6EECCF74F3ED52EFCF73F384
:100E600072C3EAFF01C0E9FF74C3EFFF030E6A25F6
:100E7000036A050F016E030E032203C072F3036AB7
:100E800069C302F0D8900236033602503D0FE96E76
:100E9000000E0320EA6EECCF74F3ED52EFCF73F344
:100EA00072C3EAFF01C0E9FF73C3EFFF040E6A25B6
:100EB000036A050F016E030E032203C072F3036A77
:100EC00069C302F0D890023603360250430FE96E30
:100ED000000E0320EA6EECCF74F3ED52EFCF73F304
:100EE00072C3EAFF01C0E9FF74C3EFFF050E6A2574
:100EF000036A050F016E030E032203C072F3036A37
:100F000069C302F0D890023603360250430FE96EEF
:100F1000000E0320EA6EECCF74F3ED52EFCF73F3C3
:100F200072C3EAFF01C0E9FF73C3EFFF060E6A2533
:100F3000036A050F016E030E032203C072F3036AF6
:100F400069C302F0D890023603360250490FE96EA9
:100F5000000E0320EA6EECCF74F3ED52EFCF73F383
:100F600072C3EAFF01C0E9FF74C3EFFF070E6A25F1
:100F7000036A050F016E030E032203C072F3036AB6
:100F800069C302F0D890023603360250490FE96E69
:100F9000000E0320EA6EECCF74F3ED52EFCF73F343
:100FA00072C3EAFF01C0E9FF73C3EFFF69C371F3C6
:100FB00000010EDE03C070F302C06FF301C06EF3D8
:100FC00000C06DF3080E03016A25036A050FE96E80
:100FD000030E0320EA6E70C3EFFF090E6A25036A51
:100FE000050FE96E030E0320EA6E6FC3EFFF0A0ED2
:100FF0006A25036A050FE96E030E0320EA6E6EC3CD
:10100000EFFF0B0E6A25036A050FE96E030E03203E
:10101000EA6E6DC3EFFF692BC1D6696B6951070892
:1010200075E36951060DF3502C0F6A6F776B69C336
:1010300076F3796B200E786F000185EC03F002C027
:1010400003F00150340F0301716F000E0220726F24
:10105000036A010171C102F0D890023603360250D2
:1010600003017125016E7251032201503D0FE96E9B
:10107000000E0320EA6EECCF03F0ED52EFCF6BF3DE
:1010800003C06CF3036A6A51050FE96E030E032077
:10109000EA6E6CC3EFFF010E6A25036A050FE96E65
:1010A000030E0320EA6E6BC3EFFF69C371F3000107
:1010B000BFDD02C06CF301C06BF3020E03016A25B1
:1010C000036A050FE96E030E0320EA6E6CC3EFFF9F
:1010D000030E6A25036A050FE96E030E0320EA6E0C
:1010E0006BC3EFFF040E6A25036A050FE96E030E5A
:1010F0000320EA6EEF6A050E6A25036A050FE96EA2
:10110000030E0320EA6EEF6A692B88D77BC161F377
:1011100003017AC162F30301F29CF29EF2BEFDD795
:101120007DC163F303017CC164F30301C00EF212BD
:10113000030E726F060E716F5F0E736F0001C2D5E2
:1011400002C068F301C067F3030168C365F367C3B6
:1011500066F395928C92325206E10E0E716F000189
:10116000A4EC03F00301696B695161080FE3036AA2
:101170006951050FE96E030E0320EA6EEFCF71F39C
:1011800071510001D3DD0301692BEED7325202E128
:1011900095928C820101782BD8B4792B0001CADD9D
:1011A000F29CF29EF2BEFDD701017D6B7C6BC00EFE
:1011B000F212000184EF14F00101F3B704D0000E25
:1011C000016E0AD006D0FBAF04D0FDC1FCF1010EC8
:1011D000FA6FF397010E016E0001A0EF12F0F29C7E
:1011E000F29EF2BEFDD7586A576A566A556A5C6A23
:1011F0005B6A5A6A596A606A5F6A5E6A5D6AC00EB3
:10120000F21217EF0EF00101736B726B756B746B5A
:10121000776B766B000137EF0EF00301195309E18C
:10122000000E83B2010E036A016E03C002F012D0F9
:101230000AD0192D08D0000E83B4010E036A016E86
:1012400003C002F007D0000E83B6010E036A016EE0
:1012500003C002F0000112000301185303E117510B
:10126000630819E2185317E117518F0814E3640E4D
:10127000175F000E185BD8901735036A960FE96E5A
:10128000010E0320EA6EEFCF01F0E92AEF50E906E4
:10129000026E34EF0FF01751006E1851036E0350B9
:1012A00005E100520001D8B49DD20301035006E1CC
:1012B000010E005C0001D8B49CD20301035006E18A
:1012C000020E005C0001D8B49BD20301035006E17A
:1012D000030E005C0001D8B49AD20301035006E16A
:1012E000040E005C0001D8B499D20301035006E15A
:1012F000050E005C0001D8B4A5D20301035006E13D
:10130000060E005C0001D8B4A4D20301035006E12C
:10131000070E005C0001D8B4A3D20301035006E11C
:10132000080E005C0001D8B4A2D20301035006E10C
:10133000090E005C0001D8B4A1D20301035006E1FC
:101340000A0E005C0001D8B4A0D20301035006E1EC
:101350000B0E005C0001D8B4ADD20301035006E1CE
:101360000C0E005C0001D8B4ACD20301035006E1BE
:101370000D0E005C0001D8B4ABD20301035006E1AE
:101380000E0E005C0001D8B4AAD20301035006E19E
:101390000F0E005C0001D8B4A9D20301035006E18E
:1013A000100E005C0001D8B4A8D20301035006E17E
:1013B000110E005C0001D8B4B5D20301035006E160
:1013C000120E005C0001D8B4B4D20301035006E150
:1013D000130E005C0001D8B4C3D20301035006E130
:1013E000140E005C0001D8B4C7D20301035006E11B
:1013F000150E005C0001D8B4C6D20301035006E10B
:10140000160E005C0001D8B4D5D20301035006E1EA
:10141000170E005C0001D8B4DAD20301035006E1D4
:10142000180E005C0001D8B4D9D20301035006E1C4
:10143000190E005C0001D8B4E8D20301035006E1A4
:101440001A0E005C0001D8B4EDD20301035006E18E
:101450001B0E005C0001D8B4ECD20301035006E17E
:101460001C0E005C0001D8B4FBD20301035006E15E
:101470001D0E005C0001D8B400D30301035006E147
:101480001E0E005C0001D8B4FFD20301035006E138
:101490001F0E005C0001D8B40ED30301035006E117
:1014A000200E005C0001D8B413D30301035006E101
:1014B000210E005C0001D8B412D30301035006E1F1
:1014C000220E005C0001D8B421D30301035006E1D1
:1014D000230E005C0001D8B426D30301035006E1BB
:1014E000240E005C0001D8B425D30301035006E1AB
:1014F000250E005C0001D8B434D30301035006E18B
:10150000260E005C0001D8B439D30301035006E174
:10151000270E005C0001D8B438D30301035006E164
:10152000280E005C0001D8B447D30301035006E144
:10153000290E005C0001D8B44CD30301035006E12E
:101540002A0E005C0001D8B44BD30301035006E11E
:101550002B0E005C0001D8B450D30301035006E108
:101560002C0E005C0001D8B450D30301035006E1F7
:101570002D0E005C0001D8B450D30301035006E1E6
:101580002E0E005C0001D8B450D30301035006E1D5
:101590002F0E005C0001D8B450D30301035006E1C4
:1015A000300E005C0001D8B450D30301035006E1B3
:1015B000310E005C0001D8B450D30301035006E1A2
:1015C000320E005C0001D8B450D30301035006E191
:1015D000330E005C0001D8B450D30301035006E180
:1015E000340E005C0001D8B454D30301035006E16B
:1015F000350E005C0001D8B459D30301030E035C1F
:1016000006E1E80E005C0001D8B45DD30301030ECF
:10161000035C06E1E90E005C0001D8B45CD3030171
:10162000030E035C06E1EA0E005C0001D8B45AD355
:101630000301030E035C06E1EB0E005C0001D8B46D
:1016400058D30301030E035C06E1EC0E005C0001BD
:10165000D8B456D30301030E035C06E1ED0E005C23
:101660000001D8B454D30301030E035C06E1EE0E6F
:10167000005C0001D8B452D30301030E035C06E101
:10168000EF0E005C0001D8B451D30301030E035CDC
:1016900006E1F00E005C0001D8B450D30301030E44
:1016A000035C06E1F10E005C0001D8B44FD30301E6
:1016B000030E035C06E1F20E005C0001D8B44DD3CA
:1016C0000301030E035C06E1F30E005C0001D8B4D5
:1016D0004CD30301030E035C06E1F40E005C000131
:1016E000D8B44AD30301030E035C06E1F50E005C97
:1016F0000001D8B449D30301030E035C06E1F60EE2
:10170000005C0001D8B448D30301030E035C06E17A
:10171000F70E005C0001D8B447D30301030E035C4D
:1017200006E1F80E005C0001D8B446D30301030EB5
:10173000035C06E1F90E005C0001D8B444D3030158
:10174000040E035C06E14C0E005C0001D8B442D3E9
:101750000301040E035C06E14D0E005C0001D8B4E9
:1017600041D30301040E035C06E14E0E005C000150
:10177000D8B440D30301040E035C06E14F0E005CB5
:101780000001D8B43FD30301040E035C06E1500E00
:10179000005C0001D8B43ED30301040E035C06E1F3
:1017A000510E005C0001D8B43DD30301040E035C6C
:1017B00006E1520E005C0001D8B43CD30301040ED4
:1017C000035C06E1530E005C0001D8B43BD3030177
:1017D000040E035C06E1540E005C0001D8B43AD359
:1017E00003013ED34FC001F050C002F003013CD3CF
:1017F00000013D50016E3E50026E030135D30001E1
:101800004350016E4450026E03012ED30001495033
:10181000016E4A50026E030127D300010301716B70
:101820000001E8EC05F003C003F302C002F301C0BD
:1018300001F300C000F303010051016E0151026E7B
:1018400013D3000103010251016E0351026E0CD348
:1018500000015150016E5250026E030105D3000188
:101860003F50016E4050026E0301FED20001455010
:10187000016E4650026E0301F7D200014B50016E1B
:101880004C50026E0301F0D20001010E0301716F92
:101890000001E8EC05F003C003F302C002F301C04D
:1018A00001F300C000F303010051016E0151026E0B
:1018B000DBD2000103010251016E0351026ED4D24A
:1018C00000015350016E5450026E0301CDD200014D
:1018D0004150016E4250026E0301C6D200014750D2
:1018E000016E4850026E0301BFD200014D50016EDF
:1018F0004E50026E0301B8D20001020E0301716F57
:101900000001E8EC05F003C003F302C002F301C0DC
:1019100001F300C000F303010051016E0151026E9A
:10192000A3D2000103010251016E0351026E9CD249
:101930000001036A01017151026ED890023603362C
:101940000250710FE96E000E0320EA6EECCF03F037
:10195000ED52EF50016E0350026E030185D200017B
:101960000301716B000118EC06F00150016E02508A
:10197000026E030179D200016150016E6250026E65
:10198000030172D20001036A01017151026ED89005
:10199000023603360250910FE96E000E0320EA6E04
:1019A000ECCF03F0ED52EF50016E0350026E0301D5
:1019B0005BD20001010E0301716F000118EC06F00B
:1019C0000150016E0250026E03014ED200016350BD
:1019D000016E6450026E030147D20001036A0101E7
:1019E0007151026ED890023603360250B10FE96E83
:1019F000000E0320EA6EECCF03F0ED52EF50016EC3
:101A00000350026E030130D20001020E0301716F18
:101A1000000118EC06F00150016E0250026E030145
:101A200023D200016550016E6650026E03011CD284
:101A30000001036A01017151026ED890023603362B
:101A40000250D10FE96E000E0320EA6EECCF03F0D6
:101A5000ED52EF50016E0350026E030105D20001FA
:101A6000030E0301716F000118EC06F00150016EC6
:101A70000250026E0301F8D100016750016E6850F8
:101A8000026E0301F1D10001036A01017151026E7E
:101A9000D890023603360250F10FE96E000E032093
:101AA000EA6EECCF03F0ED52EF50016E0350026E80
:101AB0000301DAD10001040E0301716F000118EC7B
:101AC00006F00150016E0250026E0301CDD10001FB
:101AD0006950016E6A50026E0301C6D10001036AAB
:101AE00001017151026ED890023603360250110F77
:101AF000E96E010E0320EA6EECCF03F0ED52EF50D9
:101B0000016E0350026E0301AFD10001050E030107
:101B1000716F000118EC06F00150016E0250026E68
:101B20000301A2D100016B50016E6C50026E0301E3
:101B30009BD10001036A01017151026ED8900236F7
:101B400003360250310FE96E010E0320EA6EECCF2E
:101B500003F0ED52EF50016E0350026E030184D189
:101B60000001060E0301716F000118EC06F0015030
:101B7000016E0250026E030177D100016D50016EBB
:101B80006E50026E030170D10001036A01017151B0
:101B9000026ED890023603360250510FE96E010EE4
:101BA0000320EA6EECCF03F0ED52EF50016E0350CC
:101BB000026E030159D10001070E0301716F00018C
:101BC00018EC06F00150016E0250026E03014CD178
:101BD00000016F50016E7050026E030145D100018B
:101BE00001017951036E7851782BD8B4792B016EAD
:101BF0000350026E030138D1000101017C51016ED6
:101C00007D51026E030130D1000101017A51016E54
:101C10007B51026E030128D100019AEC06F0000E00
:101C2000016E026E030120D10001EFEF08F0000EFB
:101C3000016E026E030118D1000101017251016EA3
:101C40007351026E030110D1000101017451016E44
:101C50007551026E030108D1000101017651016E38
:101C60007751026E030100D1000103EF09F0000E6D
:101C7000016E026E0301F8D000010301196B00012F
:101C80000DEC09F00150016E0250026E0301ECD020
:101C90000001010E0301196F00010DEC09F0015064
:101CA000016E0250026E0301DFD00001020E03013B
:101CB000196F00010DEC09F00150016E0250026E27
:101CC0000301D2D00001036A2350016E0350026E5B
:101CD0000301CAD000012450016E2550026E030199
:101CE000C3D00001580E016E000E026E0301BCD07D
:101CF0000001470E016E000E026E0301B5D0000117
:101D0000580E016E000E026E0301AED00001010EEE
:101D1000016E000E026E0301A7D00001036A20507D
:101D2000016E0350026E03019FD00001036A21502F
:101D3000016E0350026E030197D00001036A225026
:101D4000016E0350026E03018FD000013050016E0E
:101D50003150026E030188D00001036A3250016ED7
:101D60000350026E030180D000013350016E3450E5
:101D7000026E030179D00001036A3550016E0350F1
:101D8000026E030171D00001036A3650016E0350E8
:101D9000026E030169D00001036A3750016E0350DF
:101DA000026E030161D00001036A3850016E0350D6
:101DB000026E030159D000013950016E3A50026E93
:101DC000030152D000013B50016E3C50026E0301F2
:101DD0004BD00001036A2650016E0350026E0301CE
:101DE00043D00001036A2750016E0350026E0301C5
:101DF0003BD00001036A2850016E0350026E0301BC
:101E000033D00001036A2950016E0350026E0301B2
:101E10002BD00001036A2A50016E0350026E0301A9
:101E200023D00001036A2B50016E0350026E0301A0
:101E30001BD00001036A2C50016E0350026E030197
:101E400013D00001036A2D50016E0350026E03018E
:101E50000BD000012E50016E2F50026E030104D0F2
:101E6000FF0E016E026E00D00001120003010D5141
:101E70001F080CE10E514E0809E10F51200806E140
:101E800010514E0803E1010E016E48D00E5303E1DC
:101E90000D51320808E2105306E10F51360803E3F2
:101EA000010E016E3BD00E5103080FE2FF0A03E161
:101EB0000D514B080AE21051040807E303E10F51EA
:101EC000550803E3010E016E29D00E5102080FE2FE
:101ED000FF0A03E10D51E7080AE21051030807E386
:101EE00003E10F51FA0803E3010E016E17D00E5300
:101EF00003E10D51630808E2105306E10F51900809
:101F000003E3010E016E0AD0105306E10F513608AB
:101F100003E3010E016E02D0000E016E00011BEF03
:101F200013F003011751000196EC06F0196AF2BE96
:101F3000198EF29E17C37CF316EC03F019BEF28ED5
:101F4000215205E1450E006E002EFED705D0220E6F
:101F5000006E002EFED7000012000101F869F7693B
:101F6000F3979D9A949A8B8A94988B88215205E1D5
:101F7000F30E006E002EFED704D0790E006E002EF8
:101F8000FED715C317F30001CCDF16C317F3C9DF63
:101F90001200F8C116F3F7C115F316C317F3C1DF2A
:101FA00015C317F3BEDFACA2FED7215205E1F30E35
:101FB000006E002EFED704D0790E006E002EFED7E4
:101FC00076EC05F094988B98949A8B9A0101F869B5
:101FD000F7690001120003010C5180090F6F0DC356
:101FE00010F30BC315F3166F0001B7DF0EC317F321
:101FF00098DFCFDF12000CC315F30BC316F3ADDF70
:10200000D89003010F35156F1035166F15C317F3F0
:10201000000187DF0301126B116B1251105D23E386
:1020200003E10F51115D1FE211510D25156F125182
:102030000E21166F186F15C317F300012CEC09F071
:1020400002C014F301C013F314C315F314C317F340
:1020500068DF13C315F313C317F363DF0301112BF9
:10206000D8B4122BDAD7000194DF3DEF13F0036AE6
:1020700003011551360FE96E000E0320EA6EEF5092
:10208000010803E1030E016E1DD0155307E116533D
:1020900002E18C9201D08C82959212D0152D07D03E
:1020A000165302E18C9401D08C84959409D015517B
:1020B000020806E1165302E18C9601D08C869596B3
:1020C000000E016E0001120001017E531BE00301AE
:1020D0001151E80809E11251030806E113C323F086
:1020E000000E016EEDD10DD01151E9080AE1125137
:1020F000030807E114C325F013C324F0000E016E9A
:10210000DFD1010103011151006E1251036E035022
:1021100006E1330E005C0001D8B4E1D003010350A6
:1021200006E1340E005C0001D8B4E3D00301035093
:1021300006E1350E005C0001D8B4E7D00301030EC0
:10214000035C06E1EE0E005C0001D8B4EAD00301A6
:10215000030E035C06E1EF0E005C0001D8B4EDD085
:102160000301030E035C06E1F00E005C0001D8B42D
:10217000F6D00301030E035C06E1F10E005C0001E2
:10218000D8B4F9D00301030E035C06E1F20E005C43
:102190000001D8B4F6D00301030E035C06E1F30E90
:1021A000005C0001D8B402D10301030E035C06E118
:1021B000F40E005C0001D8B4FFD00301030E035CF1
:1021C00006E1F50E005C0001D8B402D10301030E54
:1021D000035C06E1F60E005C0001D8B405D10301F2
:1021E000030E035C06E1F70E005C0001D8B408D1D1
:1021F0000301030E035C06E1F80E005C0001D8B495
:102200000BD10301030E035C06E1F90E005C000133
:10221000D8B413D10301040E035C06E1540E005C34
:102220000001D8B410D10301040E035C06E14C0E8A
:10223000005C0001D8B40FD10301040E035C06E179
:102240004D0E005C0001D8B406D10301040E035CFE
:1022500006E14E0E005C0001D8B4FDD00301040E6F
:10226000035C06E14F0E005C0001D8B4F4D003011A
:10227000040E035C06E1500E005C0001D8B4EBD004
:102280000301040E035C06E1510E005C0001D8B4AA
:10229000E2D00301040E035C06E1520E005C000173
:1022A000D8B4D9D00301040E035C06E1530E005CE0
:1022B0000001D8B4D0D00301070E035C06E1CF0EB5
:1022C000005C0001D8B4D5D003014E0E035C06E1DA
:1022D0001F0E005C0001D8B4D9D00301ECD003017B
:1022E000156B13C316F30001C2DE01500301E8D0E1
:1022F0000001010E0301156F13C316F30001B7DED1
:102300000150016E0301DCD00001020E0301156FC4
:1023100013C316F30001ABDE0150016E0301D0D0F0
:1023200000010301145303E113517F0803E2030E7C
:10233000016EC6D013C320F0C1D00301145303E1D2
:102340001351010803E2030E016EBAD01351215C50
:1023500002E1145303E0010193850301AFD00301AF
:10236000145303E11351010803E2030E016EA8D0D8
:1023700013C322F0A3D014C331F013C330F0030110
:102380009DD00301135302E114530DE0145303E1F4
:102390001351400805E2145303E113515A0803E2B4
:1023A000030E016E8DD013C332F088D014C334F005
:1023B00013C333F0030182D00301145303E113511B
:1023C000010803E2030E016E7BD013C335F076D013
:1023D0000301145303E11351010803E2030E016EDC
:1023E0006FD013C336F06AD00301145303E11351C5
:1023F000010803E2030E016E63D013C337F05ED011
:102400000301145303E11351010803E2030E016EAB
:1024100057D013C338F052D003011451000808E21A
:10242000FF0A03E11351000803E2030E016E48D0D6
:1024300014C33AF013C339F041D014C33CF013C3B2
:102440003BF003013BD00101938314C32FF013C36E
:102450002EF0030133D04C0E0301115F040E125B0A
:10246000260E1125E96E000E1221EA6E13C3EFFF4E
:1024700025D00301132D02D0145303E0030E016E87
:102480001FD00001FDEC04F0030118D0030113512B
:102490000A0803E11451070806E001017E6B030EF0
:1024A000016E03010DD0010E01017E6FC80E916F08
:1024B000926B030103D0020E016E02D0000E016E7A
:1024C000000112000DC315F3060E0301166F000183
:1024D00044DD0FC312F30FC317F323DD0EC312F352
:1024E0000EC317F31EDD11C312F311C317F319DD69
:1024F00010C312F310C317F314DD4BDD77EF13F0A5
:102500000BC315F3100E0301166F000126DD0DC37A
:1025100010F30DC317F305DD0CC310F30CC317F351
:1025200000DD0FC310F30FC317F3FBDC0EC310F372
:102530000EC317F3F6DC2DDDD9EF13F0DCEF08F056
:102540000152D8B455D10101F951395C41E13A52F7
:102550003FE1FB51030803E0FB51040839E1FDC1F1
:1025600003F0FE513B5C34E103503C5C31E1FA5135
:1025700004082EE103010B6B0B512A0821E3D890CC
:102580000B35036A960F016E010E032201C00CF396
:1025900003C00DF30F6B0BC30EF30FC318F30BC384
:1025A00017F300012CEC09F00DC3EAFF0CC3E9FF9F
:1025B00002C0ECFFED5201C0EFFF03010B2BDCD793
:1025C00000019AEC06F00101ED6BEC6B960E916F39
:1025D0002050F95DD8A401D1723D03D0733D01D0E4
:1025E00003D0722BD8B4732B140E916F926BFB51E6
:1025F000030A000108E0070A06E0020A40E0160AA2
:10260000D8B477D0D8D0FDC106F3FEC105F3FFC121
:1026100008F300C207F30301075105250B6F0851AA
:1026200006210C6F06C30EF305C30DF3106F0BC329
:102630000FF300011BD4015213E120C00BF303017F
:102640000D6BFBC10CF3020E0E6F0001C4DC010127
:10265000776B020E766F640E926F916B0FD0000154
:10266000FBC10BF320C00CF306C30EF305C30DF33F
:1026700008C310F307C30FF3BED40101ADD0FDC1F1
:1026800006F3FEC105F3FFC10CF300C20BF306C352
:1026900012F305C311F3FFC114F300C213F314DDE9
:1026A00001C009F30301095312E020C00BF30D6BC5
:1026B000FBC10CF309C30EF300018DDC0101776B44
:1026C00009C376F1640E926F916B12D00301FFC1C2
:1026D0000CF300C20BF320C00DF306C30FF305C3C8
:1026E0000EF3FFC111F300C210F30001EBD601019C
:1026F00073D0FDC106F3FEC105F3FFC108F300C2AC
:1027000007F303010A6B085303E107510A5D43E233
:102710000A5105250B6F000E06210C6FD8900A3563
:10272000050FFD0FE96E010EEA6ED8B0EA2AEFCF71
:102730000DF3D8900A35060FFD0FE96E010EEA6E13
:10274000D8B0EA2AEFCF0EF30DC310F30EC30FF388
:102750000CC312F30BC311F30DC314F30EC313F325
:102760000001B2DC01C009F30301095312E020C0EB
:102770000BF30D6BFBC10CF309C30EF300012BDC53
:102780000101776B09C376F1640E926F916B0301BF
:1027900002D00A2BB8D709530CE120C00BF306C3B3
:1027A0000DF305C30CF308C30FF307C30EF30001C9
:1027B000A7D6010111D020C00BF303010D6BFBC1A3
:1027C0000CF3010E0E6F000106DC0101776B010EA8
:1027D000766F640E926F916B0BD0743D03D0753D94
:1027E00001D003D0742BD8B4752B140E916F926F57
:1027F000000188EF14F0F86AD09E078EEA6AE96A51
:10280000700ED36ED3500101EF6BEE6BF16BF06B7A
:10281000F26BF391F393F395F469F56BB8960C0EA4
:10282000AF6EA20EAC6E900EAB6EF397F66BC1500E
:10283000C00B0F09C16E070EB46E1A6A1B6A020143
:10284000FC6BFD6BFE6BFF6B0301006B016B026B9E
:10285000036B0001B8EF03F051EF05F020507F0843
:1028600003E32150010802E225EC05F094968B86E3
:10287000FA0E0301716F0001A4EC03F094948B84B1
:10288000FA0E0301716F0001A4EC03F094968B968D
:10289000FA0E0301716F0001A4EC03F094948B9481
:1028A00001017F5309E0B8960C0EAF6EA20EAC6E1C
:1028B0009D8AC00EF2120CD0AB8EAB8800017EEF69
:1028C00005F0212C05D0B896190EAF6EA60EAC6E91
:1028D0000301046B04511D0806E3000187EC05F0B9
:1028E0000301042BF7D70400010193A105D09391B4
:1028F000000187EC05F001017F5308E093A705D0A4
:1029000093970001B7EF06F0010116D0000116D62B
:10291000010193A511D09395215208E1B896190EA3
:10292000AF6EA60EAC6E010E216E06D0B8960C0EE0
:0E293000AF6EA20EAC6E216A0301D5D7030074
:020000040030CA
:0E00000000C81E1F000781000FC00FE00F4058
:00000001FF
;PIC18F4523
;CRC=E57D  CREATED="01-Apr-14 16:49"
