:0400000071EF14F098
:080008006BEF00F000000000A6
:100010000000000000000000046ED8CF05F0E0CF23
:1000200006F00001E9CF0CF0EACF07F0E1CF08F0CD
:10003000E2CF09F0D9CF0AF0DACF0BF0F3CF12F00C
:10004000F4CF13F0FACF14F0F5CF15F0F6CF16F089
:10005000F7CF17F000C00EF001C00FF002C010F093
:1000600003C011F0F2AA38EF00F0F2B4E5EF02F0AD
:10007000F2A63EEF00F0F2B0C6EF02F09DAA44EF08
:1000800000F09EBA21EF03F00EC000F00FC001F0A7
:1000900010C002F011C003F00CC0E9FF07C0EAFF76
:1000A000078E08C0E1FF09C0E2FF0AC0D9FF0BC0FC
:1000B000DAFF12C0F3FF13C0F4FF14C0FAFF15C03B
:1000C000F5FF16C0F6FF17C0F7FF045006C0E0FFAB
:1000D00005C0D8FF10001A6ED8CF1BF0E0CF1CF07F
:1000E0000001E9CF22F0EACF1DF0E1CF1EF0E2CF10
:1000F0001FF0D9CF20F0DACF21F0F3CF28F0F4CFE2
:1001000029F0FACF2AF0F5CF2BF0F6CF2CF0F7CF6D
:100110002DF000C024F001C025F002C026F003C07D
:1001200027F09DA297EF00F09EB2DAEF01F024C015
:1001300000F025C001F026C002F027C003F022C065
:10014000E9FF1DC0EAFF1D8E1EC0E1FF1FC0E2FFD8
:1001500020C0D9FF21C0DAFF28C0F3FF29C0F4FF77
:100160002AC0FAFF2BC0F5FF2CC0F6FF2DC0F7FF09
:100170001A501CC0E0FF1BC0D8FF1000F76A8C0F9C
:10018000F66E010EF7220900F55012000001020080
:1001900004050706F76AA40FF66E010EF7220900A0
:1001A000F550120000C1814001C0804101C0804172
:1001B00000C1814001C0804100C1814000C1814037
:1001C00001C0804101C0804100C1814000C1814027
:1001D00001C0804100C1814001C0804101C0804117
:1001E00000C1814001C0804100C1814000C1814007
:1001F00001C0804100C1814001C0804101C08041F7
:1002000000C1814000C1814001C0804101C08041E6
:1002100000C1814001C0804100C1814000C18140D6
:1002200001C0804101C0804100C1814000C18140C6
:1002300001C0804100C1814001C0804101C08041B6
:1002400000C1814000C1814001C0804101C08041A6
:1002500000C1814001C0804100C1814000C1814096
:1002600001C0804100C1814001C0804101C0804186
:1002700000C1814001C0804100C1814000C1814076
:1002800001C0804101C0804100C1814000C1814066
:1002900001C0804100C1814001C0804101C0804156
:1002A00000C18140F76AB40FF66E020EF722090012
:1002B000F550120000C0C101C30302C2C60607C741
:1002C00005C5C404CC0C0DCD0FCFCE0E0ACACB0B86
:1002D000C90908C8D81819D91BDBDA1A1EDEDF1FB6
:1002E000DD1D1CDC14D4D515D71716D6D21213D3A6
:1002F00011D1D010F03031F133F3F23236F6F73756
:10030000F53534F43CFCFD3DFF3F3EFEFA3A3BFB45
:1003100039F9F83828E8E929EB2B2AEAEE2E2FEFF5
:100320002DEDEC2CE42425E527E7E62622E2E32365
:10033000E12120E0A06061A163A3A26266A6A76795
:10034000A56564A46CACAD6DAF6F6EAEAA6A6BAB05
:1003500069A9A86878B8B979BB7B7ABABE7E7FBF35
:100360007DBDBC7CB47475B577B7B67672B2B37325
:10037000B17170B0509091519353529296565797D5
:10038000559594549C5C5D9D5F9F9E5E5A9A9B5BC5
:1003900099595898884849894B8B8A4A4E8E8F4F75
:1003A0008D4D4C8C448485458747468682424383E5
:1003B00041818040030194A10CD00101953D05D0FD
:1003C000963D03D0030105D00101952BD8B4962B9F
:1003D000030194A50CD00101973D05D0983D03D0B1
:1003E000030105D00101972BD8B4982B030194A9E0
:1003F0000CD00101993D05D09A3D03D0030105D0F1
:100400000101992BD8B49A2B03019380949381B066
:10041000948394B32ED0020104B102D0030129D0F9
:10042000642AD8B4652A010E6A26D8B06B2AD8B4DB
:100430006C2AD8B46D2A04A313D00301949196C1F9
:1004400053F095C152F05350595C08E303E1585002
:10045000525C04E253C059F052C058F002010493B8
:1004600004B307D00101966B956B030194810201DF
:10047000048302010491030194A303D002010481C7
:1004800003019382949781B2948794B72ED002018E
:1004900004B502D0030129D0662AD8B4672A010E18
:1004A0006E26D8B06F2AD8B4702AD8B4712A04A79F
:1004B00013D00301949598C155F097C154F055504D
:1004C0005B5C08E303E15A50545C04E255C05BF006
:1004D00054C05AF00201049704B707D00101986B89
:1004E000976B0301948502010487020104950301BF
:1004F00094A703D00201048503019384949B81B4E3
:10050000948B94BB2ED0020104B902D0030129D0F0
:10051000682AD8B4692A010E7226D8B0732AD8B4D2
:10052000742AD8B4752A04AB13D0030194999AC1E4
:1005300057F099C156F057505D5C08E303E15C50F9
:10054000565C04E257C05DF056C05CF00201049BAB
:1005500004BB07D001019A6B996B030194890201D6
:10056000048B02010499030194AB03D002010489B6
:1005700003010201032B0351640804E1036B010131
:10058000A88902019E92000197EF00F081CF91F3BC
:10059000020105B90AD0030191B902D0020105D0C8
:1005A0000101A887AA6BA96B020191C305F2F29021
:1005B000000144EF00F0F29A0301925304E0D76A7D
:1005C000D66AF294F28A0001120002010751020871
:1005D0000AE1085308E1095306E104BD04D0020E04
:1005E0000B5F048D01D0049D09690869076B030145
:1005F000926B0001E0DFF29444EF00F09EAAFED778
:10060000ABCF06F20201AECF01F006A302D0AB9849
:10061000AB88000112000201095103019219936F86
:10062000036A93510001B6DD016E02010851011801
:10063000096F036A03019351000134DEE8CF08F229
:100640001200DCDF01C091F30101945322E0050E9A
:10065000A76F475201E14CD00EC30DF30FC30EF349
:1006600010C30FF391C310F303010D5123080FE1E1
:100670000E51475C0CE10FC303F01051485C07E1D9
:100680000350495C04E10101A887AA6BA96B010131
:100690002FD0020104BD2BD0075308E10969086976
:1006A00091C30AF2072B0B6B0D6B17D0072D04D0EB
:1006B00091C30CF2072B11D0075102080EE10B3D3C
:1006C00002D0FE0E0B6F0E0E0B25E96E020EEA6EC7
:1006D000D8B0EA2A91C3EFFF0B2B91C392F300012C
:1006E0009ADF010E0301926F000165DF0201010133
:1006F0009E9A000144EF00F003018C518E03F3CF6A
:1007000001F0F4CF00F08F03F35000268D518E03DB
:10071000F3500020026E00011200016603D0026651
:1007200002D007D0022A00C0EEFF012EFCD7022E15
:10073000FAD73AEF04F0030EEA6E870EE96EEF5037
:100740000DE0020E016E006A002EFED7012EFBD7CF
:10075000970E006E002EFED7EF2EF3D71200720E0A
:10076000D36ED350C150C00B1709C16EC050C00B1F
:100770000709C06EC08EC2800101A66BA76BA8914D
:10078000A893A895A897A899AA6BA96B03011B6BBE
:100790001B51020856E3036A1BC302F0D8900236CD
:1007A00003360250520FE96E000E0320EA6EEC6A27
:1007B000ED52EF6A036A1BC302F0D890023603368B
:1007C0000250580FE96E000E0320EA6EEC68ED52FD
:1007D000EF68036A1BC302F0D8900236033602505A
:1007E0005E0FE96E000E0320EA6EEC6AED52EF6ACE
:1007F000036A1BC302F0D890023603360250640F1E
:10080000E96E000E0320EA6EEC6AED52EF6A8D6B22
:100810001BC38CF38F6B040E8E6F00016DDF0150D4
:100820006A0FE96E000E0220EA6EEE52EE52EC6A9A
:10083000ED52EF6AED52EF6AED52EF6A03011B2BA6
:10084000A7D70101886B876B8A6B896B8C6B8B6B6D
:100850008E6B8D6B906B8F6B926B916B866B936BCA
:10086000010EEA6EAB0EE96E006A026A580E016E66
:10087000000153D7020102690169000E0509CA6E21
:10088000310ECB6E9D8295928C92F19E0E0E0301DD
:10089000876F000150DF938C0101946B81AC942B26
:1008A0000001A9EF14F00301246B23C303F02251CC
:1008B000D8B423072207256F03C026F3255302E18E
:1008C000265333E021C303F02051E96E03C0EAFF51
:1008D0001F51036E1E511E2BD8B41F2B276F03C050
:1008E00028F3F2CF29F3F29CF29E27C3A9FFA69C1E
:1008F000A69EA680A85029BDF28C29BFF28EEF6E6D
:1009000021C303F02051E96E03C0EAFFEFCF25F3C6
:1009100024C336F325C337F336513719016E01C0AE
:1009200024F3202BD8B4212BC0D724C301F000011D
:100930004FEF05F00301346B33C303F03251D8B4E9
:1009400033073207356F03C036F3355302E13653B0
:100950003DE031C303F03051E96E03C0EAFFEFCF51
:1009600035F334C336F335C337F336513719016ED7
:1009700001C034F32F51036E2E512E2BD8B42F2BE0
:10098000356F03C036F33151036E3051302BD8B47C
:10099000312BE96E03C0EAFFEFCF37F335C3A9FF70
:1009A00037C3A8FFA69CA69EA684F250006EF29CB8
:1009B000F29E0F01550EA76EAA0EA76EA682A6B2D2
:1009C000FED7A6940050F2120301B6D734C301F04B
:1009D0000001FBEF04F003012D6B350E2C6F2F6B24
:1009E000020E2E6F2DC331F32CC330F3336B1D0E6B
:1009F000326F00019FD701C02BF3A96A2BC3A8FF58
:100A0000A69CA69EA684F250006EF29CF29E0F0158
:100A1000550EA76EAA0EA76EA682A6B2FED7A69402
:100A20000050F21200011200960E0101A66F180E7E
:100A3000356E366A376A5A0E386E260E3A6E940E46
:100A4000396E3B6A3C6A3D6A3E6A3F6A406A416A67
:100A5000426A446A140E436E466A3C0E456E476A0B
:100A6000496A486A4A6A010E4B6E4C6E4D6E4F6A77
:100A7000640E4E6E516A506E0001ADDF120003012C
:100A80001D6B350E1C6F1F6B020E1E6F1DC321F3F5
:100A90001CC320F3236B1D0E226F000104D701C07D
:100AA0001BF3F2CF1CF3F29CF29EA96AA69CA69EB1
:100AB000A680A85003011CBDF28C1CBFF28E1B5DEA
:100AC00003E00001B1DF03010001ABEF14F09EAAC7
:100AD00002D094DDFCD7949A8B9A9D8A1200949848
:100AE0008B98F5DFC40ED56EC00EF212DEEF14F057
:100AF0000101862B86510F0801E2866B03011B6BF7
:100B00001B51070854E31B51030803E194908B80A9
:100B100002D094908B90036A1B510001BEEC00F050
:100B200003011C6F1C35006E0036FC0E0016C2500F
:100B3000C30B0010C26E8D6B1BC38CF38F6B200E2A
:100B40008E6F0001D9DD02C003F00150340F0301A4
:100B50001C6F000E02201D6F036A010186C102F0A6
:100B6000D89002360336025003011C25016E1D5138
:100B700003220150520FE96E000E0320EA6EC2827A
:100B8000C2B2FED7C3CFEFFFC4CFECFF036A1BC3D3
:100B900002F0D890023603360250760FE96E000E4E
:100BA0000320EA6EEC6AED52EF6A1B2BA9D7000115
:100BB0001200959A8C8A0101953D04D0963D02D091
:100BC000536A526A973D04D0983D02D0556A546AE0
:100BD000993D04D09A3D02D0576A566A913D03D0A0
:100BE000923D01D003D0912BD8B4922B0201013D4C
:100BF00003D0023D01D003D0012BD8B4022B030156
:100C0000192B1951640810E1196B0101A92BD8B4F3
:100C1000AA2B4650AA5D07E303E14550A95D03E313
:100C2000A887AA6BA96B0301152BD8B4162B1551F5
:100C300070080EE1165117080BE1166B156B0101D8
:100C40008F3D03D0903D01D003D08F2BD8B4902B93
:100C50000101A8A304D0A8930301186B176B03012B
:100C6000172BD8B4182B4350175D07E14450185D7B
:100C700004E1186B176B0101A8810101A65303E180
:100C800094948B9403D094948B84A607A75303E188
:100C900094968B9603D094968B86A707959A8C9AF8
:100CA0000001F7EF14F0F29CF29EF2BEFDD70301B3
:100CB0008D6B87C38CF38F6B040E8E6F00011CDD70
:100CC00002C003F001506A0FE96E000E0220EA6EC6
:100CD000EFCF00F0ECCF01F0ECCF02F0ECCF03F05F
:100CE00003C08BF302C08AF301C089F300C088F30C
:100CF000C00EF21288C300F089C301F08AC302F06B
:100D00008BC303F012000301896B886B8A6B8A51D5
:100D10000F082BE38D6B87C38CF38F6B200E8E6FC8
:100D20000001EADC02C003F00150340F03018B6FB5
:100D3000000E02208C6F036A8AC302F0D89002363C
:100D4000033602508B25016E8C5103220150520F45
:100D5000E96E000E0320EA6EECCF03F0ED52EF5087
:100D60008827035089238A2BD2D7080E88258B6FBA
:100D7000000E89218C6F8C31036E8B31026E033231
:100D8000023203320232033202320F0E031602C065
:100D900001F003C002F00001120003018C698B69AD
:100DA00089518907000A26E088C303F08751872B01
:100DB000D8B4882BE96E03C0EAFFEF508B1B8A6B17
:100DC0008A51070816E38B51010B006E036A00502D
:100DD00003100AE0D8908C318E6F8B31010A8B6F33
:100DE0008E51A00A8C6F03D0D8908C338B338A2B12
:100DF000E7D7D6D78BC301F08CC302F000010BEF0D
:100E000009F09EA8FED7AD6E1200F29CF29EF2BED3
:100E1000FDD7656A646A676A666A696A686A59685A
:100E200058685B685A685D685C685F6A5E6A616A98
:100E3000606A636A626A0101926B916BC00EF21282
:100E400000011200320E0101A66F230E03011B6F79
:100E500038C01CF33AC01DF339C01EF3620E1F6F79
:100E6000170E206F8EC121F303018DC122F3030100
:100E70007F6B7F510208D8A03BD17F510C0DF350FE
:100E8000080F806F036A80511B0F016E030E03224F
:100E900003C088F3036A7FC302F0D890023603369A
:100EA0000250640FE96E000E0320EA6EECCF8AF365
:100EB000ED52EFCF89F388C3EAFF01C0E9FF8AC38F
:100EC000EFFF010E8025036A1B0F016E030E032244
:100ED00003C088F3036A7FC302F0D890023603365A
:100EE0000250640FE96E000E0320EA6EECCF8AF325
:100EF000ED52EFCF89F388C3EAFF01C0E9FF89C350
:100F0000EFFF020E8025036A1B0F016E030E032202
:100F100003C088F3036A7FC302F0D8900236033619
:100F20000250520FE96E000E0320EA6EECCF8AF3F6
:100F3000ED52EFCF89F388C3EAFF01C0E9FF8AC30E
:100F4000EFFF030E8025036A1B0F016E030E0322C1
:100F500003C088F3036A7FC302F0D89002360336D9
:100F60000250520FE96E000E0320EA6EECCF8AF3B6
:100F7000ED52EFCF89F388C3EAFF01C0E9FF89C3CF
:100F8000EFFF040E8025036A1B0F016E030E032280
:100F900003C088F3036A7FC302F0D8900236033699
:100FA0000250580FE96E000E0320EA6EECCF8AF370
:100FB000ED52EFCF89F388C3EAFF01C0E9FF8AC38E
:100FC000EFFF050E8025036A1B0F016E030E03223F
:100FD00003C088F3036A7FC302F0D8900236033659
:100FE0000250580FE96E000E0320EA6EECCF8AF330
:100FF000ED52EFCF89F388C3EAFF01C0E9FF89C34F
:10100000EFFF060E8025036A1B0F016E030E0322FD
:1010100003C088F3036A7FC302F0D8900236033618
:1010200002505E0FE96E000E0320EA6EECCF8AF3E9
:10103000ED52EFCF89F388C3EAFF01C0E9FF8AC30D
:10104000EFFF070E8025036A1B0F016E030E0322BC
:1010500003C088F3036A7FC302F0D89002360336D8
:1010600002505E0FE96E000E0320EA6EECCF8AF3A9
:10107000ED52EFCF89F388C3EAFF01C0E9FF89C3CE
:10108000EFFF7FC387F300010EDE03C086F302C0CB
:1010900085F301C084F300C083F3080E03018025AB
:1010A000036A1B0FE96E030E0320EA6E86C3EFFF8F
:1010B000090E8025036A1B0FE96E030E0320EA6EFA
:1010C00085C3EFFF0A0E8025036A1B0FE96E030E2E
:1010D0000320EA6E84C3EFFF0B0E8025036A1B0F0B
:1010E000E96E030E0320EA6E83C3EFFF7F2BC1D6A8
:1010F0007F6B7F51070875E37F51060DF3502C0F6E
:10110000806F8D6B7FC38CF38F6B200E8E6F000111
:101110007CEC03F002C003F00150340F0301876F31
:10112000000E0220886F036A010186C102F0D89088
:1011300002360336025003018725016E88510322CF
:101140000150520FE96E000E0320EA6EECCF03F05F
:10115000ED52EFCF81F303C082F3036A80511B0F7E
:10116000E96E030E0320EA6E82C3EFFF010E8025B5
:10117000036A1B0FE96E030E0320EA6E81C3EFFFC3
:101180007FC387F30001BFDD02C082F301C081F39A
:10119000020E03018025036A1B0FE96E030E032074
:1011A000EA6E82C3EFFF030E8025036A1B0FE96E10
:1011B000030E0320EA6E81C3EFFF040E8025036A4D
:1011C0001B0FE96E030E0320EA6EEF6A050E802501
:1011D000036A1B0FE96E030E0320EA6EEF6A7F2B92
:1011E00088D790C177F303018FC178F30301F29C94
:1011F000F29EF2BEFDD792C179F3030191C17AF359
:101200000301C00EF212030E886F1C0E876F5F0E73
:10121000896F0001C2D502C07EF301C07DF30301D6
:101220007EC37BF37DC37CF395928C92475206E19B
:101230000E0E876F00019BEC03F003017F6B7F5163
:1012400061080FE3036A7F511B0FE96E030E032051
:10125000EA6EEFCF87F387510001D3DD03017F2BC7
:10126000EED7475202E195928C8201018D2BD8B4C2
:101270008E2B0001CADDF29CF29EF2BEFDD7010169
:10128000926B916BC00EF212000107EF15F0020194
:1012900004BD04D0000E016E0AD006D00CAF04D0FD
:1012A0000EC20DF2010E0B6F049D010E016E0001C6
:1012B00010EF13F0F29CF29EF2BEFDD76D6A6C6ADD
:1012C0006B6A6A6A716A706A6F6A6E6A756A746A52
:1012D000736A726AC00EF21282EF0EF00101886B1F
:1012E000876B8A6B896B8C6B8B6B0001A2EF0EF0A6
:1012F00003012F5309E1000E83B2010E036A016E50
:1013000003C002F012D00AD02F2D08D0000E83B4F3
:10131000010E036A016E03C002F007D0000E83B60F
:10132000010E036A016E03C002F000011200030106
:101330002E5303E12D51630819E22E5317E12D516D
:101340008F0814E3640E2D5F000E2E5BD8902D35B0
:10135000036AAB0FE96E010E0320EA6EEFCF01F0D6
:10136000E92AEF50E906026E9FEF0FF02D51006E53
:101370002E51036E035005E100520001D8B49DD2F6
:101380000301035006E1010E005C0001D8B49CD2B9
:101390000301035006E1020E005C0001D8B49BD2A9
:1013A0000301035006E1030E005C0001D8B49AD299
:1013B0000301035006E1040E005C0001D8B499D289
:1013C0000301035006E1050E005C0001D8B4A5D26C
:1013D0000301035006E1060E005C0001D8B4A4D25C
:1013E0000301035006E1070E005C0001D8B4A3D24C
:1013F0000301035006E1080E005C0001D8B4A2D23C
:101400000301035006E1090E005C0001D8B4A1D22B
:101410000301035006E10A0E005C0001D8B4A0D21B
:101420000301035006E10B0E005C0001D8B4ADD2FD
:101430000301035006E10C0E005C0001D8B4ACD2ED
:101440000301035006E10D0E005C0001D8B4ABD2DD
:101450000301035006E10E0E005C0001D8B4AAD2CD
:101460000301035006E10F0E005C0001D8B4A9D2BD
:101470000301035006E1100E005C0001D8B4A8D2AD
:101480000301035006E1110E005C0001D8B4B5D28F
:101490000301035006E1120E005C0001D8B4B4D27F
:1014A0000301035006E1130E005C0001D8B4C3D25F
:1014B0000301035006E1140E005C0001D8B4C7D24A
:1014C0000301035006E1150E005C0001D8B4C6D23A
:1014D0000301035006E1160E005C0001D8B4D5D21A
:1014E0000301035006E1170E005C0001D8B4DAD204
:1014F0000301035006E1180E005C0001D8B4D9D2F4
:101500000301035006E1190E005C0001D8B4E8D2D3
:101510000301035006E11A0E005C0001D8B4EDD2BD
:101520000301035006E11B0E005C0001D8B4ECD2AD
:101530000301035006E11C0E005C0001D8B4FBD28D
:101540000301035006E11D0E005C0001D8B400D376
:101550000301035006E11E0E005C0001D8B4FFD267
:101560000301035006E11F0E005C0001D8B40ED346
:101570000301035006E1200E005C0001D8B413D330
:101580000301035006E1210E005C0001D8B412D320
:101590000301035006E1220E005C0001D8B421D300
:1015A0000301035006E1230E005C0001D8B426D3EA
:1015B0000301035006E1240E005C0001D8B425D3DA
:1015C0000301035006E1250E005C0001D8B434D3BA
:1015D0000301035006E1260E005C0001D8B439D3A4
:1015E0000301035006E1270E005C0001D8B438D394
:1015F0000301035006E1280E005C0001D8B447D374
:101600000301035006E1290E005C0001D8B44CD35D
:101610000301035006E12A0E005C0001D8B44BD34D
:101620000301035006E12B0E005C0001D8B450D337
:101630000301035006E12C0E005C0001D8B450D326
:101640000301035006E12D0E005C0001D8B450D315
:101650000301035006E12E0E005C0001D8B450D304
:101660000301035006E12F0E005C0001D8B450D3F3
:101670000301035006E1300E005C0001D8B450D3E2
:101680000301035006E1310E005C0001D8B450D3D1
:101690000301035006E1320E005C0001D8B450D3C0
:1016A0000301035006E1330E005C0001D8B450D3AF
:1016B0000301035006E1340E005C0001D8B454D39A
:1016C0000301035006E1350E005C0001D8B459D384
:1016D0000301030E035C06E1E80E005C0001D8B4D0
:1016E0005DD30301030E035C06E1E90E005C00011B
:1016F000D8B45CD30301030E035C06E1EA0E005C80
:101700000001D8B45AD30301030E035C06E1EB0ECB
:10171000005C0001D8B458D30301030E035C06E15A
:10172000EC0E005C0001D8B456D30301030E035C39
:1017300006E1ED0E005C0001D8B454D30301030EA2
:10174000035C06E1EE0E005C0001D8B452D3030145
:10175000030E035C06E1EF0E005C0001D8B451D328
:101760000301030E035C06E1F00E005C0001D8B437
:1017700050D30301030E035C06E1F10E005C00018F
:10178000D8B44FD30301030E035C06E1F20E005CF4
:101790000001D8B44DD30301030E035C06E1F30E40
:1017A000005C0001D8B44CD30301030E035C06E1D6
:1017B000F40E005C0001D8B44AD30301030E035CAD
:1017C00006E1F50E005C0001D8B449D30301030E15
:1017D000035C06E1F60E005C0001D8B448D30301B7
:1017E000030E035C06E1F70E005C0001D8B447D39A
:1017F0000301030E035C06E1F80E005C0001D8B49F
:1018000046D30301030E035C06E1F90E005C000100
:10181000D8B444D30301040E035C06E14C0E005C13
:101820000001D8B442D30301040E035C06E14D0E5F
:10183000005C0001D8B441D30301040E035C06E14F
:101840004E0E005C0001D8B440D30301040E035CCB
:1018500006E14F0E005C0001D8B43FD30301040E33
:10186000035C06E1500E005C0001D8B43ED30301D6
:10187000040E035C06E1510E005C0001D8B43DD3B8
:101880000301040E035C06E1520E005C0001D8B4B3
:101890003CD30301040E035C06E1530E005C00011F
:1018A000D8B43BD30301040E035C06E1540E005C84
:1018B0000001D8B43AD303013ED364C001F065C03F
:1018C00002F003013CD300015250016E5350026EEE
:1018D000030135D300015850016E5950026E0301C7
:1018E0002ED300015E50016E5F50026E030127D3BC
:1018F00000010301876B000153EC06F003C014F3F1
:1019000002C013F301C012F300C011F3030111511F
:10191000016E1251026E13D3000103011351016EC7
:101920001451026E0CD300016650016E6750026EB6
:10193000030105D300015450016E5550026E03019E
:10194000FED200015A50016E5B50026E0301F7D2C5
:1019500000016050016E6150026E0301F0D200017F
:10196000010E0301876F000153EC06F003C014F36E
:1019700002C013F301C012F300C011F303011151AF
:10198000016E1251026EDBD2000103011351016E90
:101990001451026ED4D200016850016E6950026E7B
:1019A0000301CDD200015650016E5750026E030163
:1019B000C6D200015C50016E5D50026E0301BFD2C1
:1019C00000016250016E6350026E0301B8D2000143
:1019D000020E0301876F000153EC06F003C014F3FD
:1019E00002C013F301C012F300C011F3030111513F
:1019F000016E1251026EA3D2000103011351016E58
:101A00001451026E9CD20001036A01018651026EDC
:101A1000D890023603360250860FE96E000E03207E
:101A2000EA6EECCF03F0ED52EF50016E0350026E00
:101A3000030185D200010301876B000183EC06F0EE
:101A40000150016E0250026E030179D200017650FE
:101A5000016E7750026E030172D20001036A010128
:101A60008651026ED890023603360250A60FE96EF8
:101A7000000E0320EA6EECCF03F0ED52EF50016E42
:101A80000350026E03015BD20001010E0301876F58
:101A9000000183EC06F00150016E0250026E03015A
:101AA0004ED200017850016E7950026E030147D288
:101AB0000001036A01018651026ED8900236033696
:101AC0000250C60FE96E000E0320EA6EECCF03F061
:101AD000ED52EF50016E0350026E030130D200014F
:101AE000020E0301876F000183EC06F00150016EC6
:101AF0000250026E030123D200017A50016E7B5026
:101B0000026E03011CD20001036A01018651026EBC
:101B1000D890023603360250E60FE96E000E03201D
:101B2000EA6EECCF03F0ED52EF50016E0350026EFF
:101B3000030105D20001030E0301876F000183EC4E
:101B400006F00150016E0250026E0301F8D100014F
:101B50007C50016E7D50026E0301F1D10001036AD9
:101B600001018651026ED890023603360250060FEC
:101B7000E96E010E0320EA6EECCF03F0ED52EF5058
:101B8000016E0350026E0301DAD10001040E03015D
:101B9000876F000183EC06F00150016E0250026E67
:101BA0000301CDD100017E50016E7F50026E030112
:101BB000C6D10001036A01018651026ED890023637
:101BC00003360250260FE96E010E0320EA6EECCFB9
:101BD00003F0ED52EF50016E0350026E0301AFD1DE
:101BE0000001050E0301876F000183EC06F0015030
:101BF000016E0250026E0301A2D100018051016EFC
:101C00008151026E03019BD10001036A01018651DB
:101C1000026ED890023603360250460FE96E010E6E
:101C20000320EA6EECCF03F0ED52EF50016E03504B
:101C3000026E030184D10001060E0301876F0001CB
:101C400083EC06F00150016E0250026E030177D161
:101C500000018251016E8351026E030170D10001B7
:101C6000036A01018651026ED89002360336025093
:101C7000660FE96E010E0320EA6EECCF03F0ED5221
:101C8000EF50016E0350026E030159D10001070E9F
:101C90000301876F000183EC06F00150016E0250D2
:101CA000026E03014CD100018451016E8551026E18
:101CB000030145D1000101018E51036E8D518D2B21
:101CC000D8B48E2B016E0350026E030138D100018F
:101CD00001019151016E9251026E030130D1000158
:101CE00001018F51016E9051026E030128D1000154
:101CF00005EC07F0000E016E026E030120D1000119
:101D00005AEF09F0000E016E026E030118D10001B6
:101D100001018751016E8851026E030110D100014B
:101D200001018951016E8A51026E030108D100013F
:101D300001018B51016E8C51026E030100D1000133
:101D40006EEF09F0000E016E026E0301F8D0000183
:101D500003012F6B000178EC09F00150016E025075
:101D6000026E0301ECD00001010E03012F6F000190
:101D700078EC09F00150016E0250026E0301DFD0D1
:101D80000001020E03012F6F000178EC09F00150F1
:101D9000016E0250026E0301D2D00001036A385076
:101DA000016E0350026E0301CAD000013950016E6A
:101DB0003A50026E0301C3D00001580E016E000EAE
:101DC000026E0301BCD00001470E016E000E026ED0
:101DD0000301B5D00001580E016E000E026E030122
:101DE000AED00001010E016E000E026E0301A7D0FD
:101DF0000001036A3550016E0350026E03019FD04B
:101E00000001036A3650016E0350026E030197D041
:101E10000001036A3750016E0350026E03018FD038
:101E200000014550016E4650026E030188D000014A
:101E3000036A4750016E0350026E030180D0000117
:101E40004850016E4950026E030179D00001036AC7
:101E50004A50016E0350026E030171D00001036A03
:101E60004B50016E0350026E030169D00001036AFA
:101E70004C50016E0350026E030161D00001036AF1
:101E80004D50016E0350026E030159D000014E50B7
:101E9000016E4F50026E030152D000015050016E8E
:101EA0005150026E03014BD00001036A3B50016E9A
:101EB0000350026E030143D00001036A3C50016EDF
:101EC0000350026E03013BD00001036A3D50016ED6
:101ED0000350026E030133D00001036A3E50016ECD
:101EE0000350026E03012BD00001036A3F50016EC4
:101EF0000350026E030123D00001036A4050016EBB
:101F00000350026E03011BD00001036A4150016EB1
:101F10000350026E030113D00001036A4250016EA8
:101F20000350026E03010BD000014350016E445078
:101F3000026E030104D0FF0E016E026E00D000019C
:101F40001200030123511F080CE124514E0809E13E
:101F50002551200806E126514E0803E1010E016ECD
:101F600048D0245303E12351320808E2265306E106
:101F70002551360803E3010E016E3BD024510308BE
:101F80000FE2FF0A03E123514B080AE2265104083D
:101F900007E303E12551550803E3010E016E29D043
:101FA000245102080FE2FF0A03E12351E7080AE285
:101FB0002651030807E303E12551FA0803E3010E64
:101FC000016E17D0245303E12351630808E226531E
:101FD00006E12551900803E3010E016E0AD0265355
:101FE00006E12551360803E3010E016E02D0000E12
:101FF000016E00018FEF13F003012D51000101EC80
:1020000007F0196AF2BC198CF29CF2BE198EF29E8E
:102010002DC392F30BEC03F019BCF28C19BEF28EB7
:10202000365205E1450E006E002EFED705D0220E79
:10203000006E002EFED70000120002010969086937
:10204000049D9D9A949A8B8A94988B88365205E1C8
:10205000F30E006E002EFED704D0790E006E002E17
:10206000FED72BC32DF30001C7DF2CC32DF3C4DF34
:10207000120009C22CF308C22BF32CC32DF3BCDFD2
:102080002BC32DF3B9DFACA2FED7365205E1F30E18
:10209000006E002EFED704D0790E006E002EFED703
:1020A00067EC05F094988B98949A8B9A02010969D1
:1020B000086900011200030122518009256F23C322
:1020C00026F321C32BF32C6F0001B7DF24C32DF3BC
:1020D00093DFCFDF120022C32BF321C32CF3ADDF3C
:1020E000D890030125352B6F26352C6F2BC32DF38C
:1020F000000182DF0301286B276B2851265D23E353
:1021000003E12551275D1FE2275123252B6F28511D
:1021100024212C6F2E6F2BC32DF3000197EC09F0B7
:1021200002C02AF301C029F32AC32BF32AC32DF3DB
:1021300063DF29C32BF329C32DF35EDF0301272BB4
:10214000D8B4282BDAD7000194DFB1EF13F0036A7B
:1021500003012B514B0FE96E000E0320EA6EEF5086
:10216000010803E1030E016E1DD02B5307E12C5330
:1021700002E18C9201D08C82959212D02B2D07D047
:102180002C5302E18C9401D08C84959409D02B516E
:10219000020806E12C5302E18C9601D08C869596BC
:1021A000000E016E00011200010193531BE00301B8
:1021B0002751E80809E12851030806E129C338F04E
:1021C000000E016EEDD10DD02751E9080AE128512A
:1021D000030807E12AC33AF029C339F0000E016E63
:1021E000DFD1010103012751006E2851036E035016
:1021F00006E1330E005C0001D8B4E1D003010350C6
:1022000006E1340E005C0001D8B4E3D003010350B2
:1022100006E1350E005C0001D8B4E7D00301030EDF
:10222000035C06E1EE0E005C0001D8B4EAD00301C5
:10223000030E035C06E1EF0E005C0001D8B4EDD0A4
:102240000301030E035C06E1F00E005C0001D8B44C
:10225000F6D00301030E035C06E1F10E005C000101
:10226000D8B4F9D00301030E035C06E1F20E005C62
:102270000001D8B4F6D00301030E035C06E1F30EAF
:10228000005C0001D8B402D10301030E035C06E137
:10229000F40E005C0001D8B4FFD00301030E035C10
:1022A00006E1F50E005C0001D8B402D10301030E73
:1022B000035C06E1F60E005C0001D8B405D1030111
:1022C000030E035C06E1F70E005C0001D8B408D1F0
:1022D0000301030E035C06E1F80E005C0001D8B4B4
:1022E0000BD10301030E035C06E1F90E005C000153
:1022F000D8B413D10301040E035C06E1540E005C54
:102300000001D8B410D10301040E035C06E14C0EA9
:10231000005C0001D8B40FD10301040E035C06E198
:102320004D0E005C0001D8B406D10301040E035C1D
:1023300006E14E0E005C0001D8B4FDD00301040E8E
:10234000035C06E14F0E005C0001D8B4F4D0030139
:10235000040E035C06E1500E005C0001D8B4EBD023
:102360000301040E035C06E1510E005C0001D8B4C9
:10237000E2D00301040E035C06E1520E005C000192
:10238000D8B4D9D00301040E035C06E1530E005CFF
:102390000001D8B4D0D00301070E035C06E1CF0ED4
:1023A000005C0001D8B4D5D003014E0E035C06E1F9
:1023B0001F0E005C0001D8B4D9D00301ECD003019A
:1023C0002B6B29C32CF30001C2DE01500301E8D0BE
:1023D0000001010E03012B6F29C32CF30001B7DEAE
:1023E0000150016E0301DCD00001020E03012B6FCE
:1023F00029C32CF30001ABDE0150016E0301D0D0E4
:10240000000103012A5303E129517F0803E2030E6F
:10241000016EC6D029C335F0C1D003012A5303E1B0
:102420002951010803E2030E016EBAD02951365C2E
:1024300002E12A5303E00101A8850301AFD00301A3
:102440002A5303E12951010803E2030E016EA8D0CB
:1024500029C337F0A3D02AC346F029C345F00301AE
:102460009DD00301295302E12A530DE02A5303E1D1
:102470002951400805E22A5303E129515A0803E291
:10248000030E016E8DD029C347F088D02AC349F0CE
:1024900029C348F0030182D003012A5303E12951E3
:1024A000010803E2030E016E7BD029C34AF076D007
:1024B00003012A5303E12951010803E2030E016ECF
:1024C0006FD029C34BF06AD003012A5303E129518D
:1024D000010803E2030E016E63D029C34CF05ED005
:1024E00003012A5303E12951010803E2030E016E9F
:1024F00057D029C34DF052D003012A51000808E2F9
:10250000FF0A03E12951000803E2030E016E48D0DF
:102510002AC34FF029C34EF041D02AC351F029C33A
:1025200050F003013BD00101A8832AC344F029C322
:1025300043F0030133D04C0E0301275F040E285BE8
:102540003B0E2725E96E000E2821EA6E29C3EFFF16
:1025500025D00301292D02D02A5303E0030E016E7A
:102560001FD00001EBEC04F0030118D00301295146
:102570000A0803E12A51070806E00101936B030EE4
:10258000016E03010DD0010E0101936FC80EA66FFD
:10259000A76B030103D0020E016E02D0000E016E84
:1025A0000001120023C32BF3060E03012C6F000160
:1025B00044DD25C328F325C32DF31EDD24C328F3F2
:1025C00024C32DF319DD27C328F327C32DF314DD0E
:1025D00026C328F326C32DF30FDD4BDDEBEF13F0FD
:1025E00021C32BF3100E03012C6F000126DD23C342
:1025F00026F323C32DF300DD22C326F322C32DF3DC
:10260000FBDC25C326F325C32DF3F6DC24C326F318
:1026100024C32DF3F1DC2DDD4DEF14F047EF09F06D
:102620000152D8B45BD102010A514E5C43E14F52D2
:1026300041E10C51030803E00C5104083BE10EC2D8
:1026400003F00F51505C36E10350515C33E10B5104
:10265000040830E10301216B21512A0821E3D890BD
:102660002135036AAB0F016E010E032201C022F374
:1026700003C023F3256B21C324F325C32EF321C309
:102680002DF3000197EC09F023C3EAFF22C3E9FF11
:1026900002C0ECFFED5201C0EFFF0301212BDCD79C
:1026A000000105EC07F00201026B016B960E0101BF
:1026B000A66F020135500A5DD8A404D10101873DFF
:1026C00003D0883D01D003D0872BD8B4882B140EBB
:1026D000A66FA76B02010C51030A000108E0070A6C
:1026E00006E0020A40E0160AD8B477D0D8D00EC26D
:1026F0001CF30FC21BF310C21EF311C21DF3030122
:102700001D511B25216F1E511C21226F1CC324F358
:102710001BC323F3266F21C325F3000112D40152FA
:1027200013E135C021F30301236B0CC222F3020E27
:10273000246F0001C0DC01018C6B020E8B6F640EF4
:10274000A76FA66B0FD000010CC221F335C022F396
:102750001CC324F31BC323F31EC326F31DC325F39D
:10276000BAD40101ADD00EC21CF30FC21BF310C2CC
:1027700022F311C221F31CC328F31BC327F310C299
:102780002AF311C229F310DD01C01FF303011F5307
:1027900012E035C021F3236B0CC222F31FC324F3D4
:1027A000000189DC01018C6B1FC38BF1640EA76FE4
:1027B000A66B12D0030110C222F311C221F335C05F
:1027C00023F31CC325F31BC324F310C227F311C248
:1027D00026F30001E7D6010173D00EC21CF30FC22D
:1027E0001BF310C21EF311C21DF30301206B1E5315
:1027F00003E11D51205D43E220511B25216F000E96
:102800001C21226FD8902035050F0E0FE96E020EA5
:10281000EA6ED8B0EA2AEFCF23F3D8902035060F1E
:102820000E0FE96E020EEA6ED8B0EA2AEFCF24F35B
:1028300023C326F324C325F322C328F321C327F39C
:1028400023C32AF324C329F30001AEDC01C01FF324
:1028500003011F5312E035C021F3236B0CC222F396
:102860001FC324F3000127DC01018C6B1FC38BF114
:10287000640EA76FA66B030102D0202BB8D71F539D
:102880000CE135C021F31CC323F31BC322F31EC389
:1028900025F31DC324F30001A3D6010111D035C0D7
:1028A00021F30301236B0CC222F3010E246F0001FC
:1028B00002DC01018C6B010E8B6F640EA76FA66B9F
:1028C0000DD002010101893D03D08A3D01D003D022
:1028D000892BD8B48A2B140EA66FA76F00010BEFBB
:1028E00015F0F86AF1949F82F1909F9AD08E078E2E
:1028F000EA6AE96A700ED36ED3500201036B049149
:102900000493049504970499049B0569066BB89693
:102910000C0EAF6EA20EAC6E900EAB6E049D076BEC
:102920000301166B156B186B176B196BC150C00B3D
:102930000F09C16E070EB46E2F6A306A0D6B0E6BF5
:102940000F6B106B116B126B136B146B0001AFEFFD
:1029500003F03FEF05F035507F0803E336500108E0
:1029600002E214EC05F094968B86FA0E0301876F51
:1029700000019BEC03F094948B84FA0E0301876FA3
:1029800000019BEC03F094968B96FA0E0301876F7F
:1029900000019BEC03F094948B940101945309E0A3
:1029A000B8960C0EAF6EA20EAC6E9D8AC00EF212DF
:1029B0000CD0AB8EAB8800016FEF05F0362C05D044
:1029C000B896190EAF6EA60EAC6E03011A6B1A51B3
:1029D0001D0806E3000178EC05F003011A2BF7D778
:1029E00004000101A8A904D00001D9EF05F00101FC
:1029F000A8A105D0A891000178EC05F0010194533D
:102A000008E0A8A705D0A897000122EF07F0010170
:102A100016D0000103D60101A8A511D0A895365201
:102A200008E1B896190EAF6EA60EAC6E010E366EAA
:102A300006D0B8960C0EAF6EA20EAC6E366A0301CD
:042A4000CFD70300E9
:020000040030CA
:0E00000000C81E1F000781000FC00FE00F4058
:00000001FF
;PIC18F4523
;CRC=809D  CREATED="05-May-15 11:34"
