:0400000094EF14F075
:080008006BEF00F000000000A6
:100010000000000000000000046ED8CF05F0E0CF23
:1000200006F00001E9CF0CF0EACF07F0E1CF08F0CD
:10003000E2CF09F0D9CF0AF0DACF0BF0F3CF12F00C
:10004000F4CF13F0FACF14F0F5CF15F0F6CF16F089
:10005000F7CF17F000C00EF001C00FF002C010F093
:1000600003C011F0F2AA38EF00F0F2B4E5EF02F0AD
:10007000F2A63EEF00F0F2B0C6EF02F09DAA44EF08
:1000800000F09EBA21EF03F00EC000F00FC001F0A7
:1000900010C002F011C003F00CC0E9FF07C0EAFF76
:1000A000078E08C0E1FF09C0E2FF0AC0D9FF0BC0FC
:1000B000DAFF12C0F3FF13C0F4FF14C0FAFF15C03B
:1000C000F5FF16C0F6FF17C0F7FF045006C0E0FFAB
:1000D00005C0D8FF10001A6ED8CF1BF0E0CF1CF07F
:1000E0000001E9CF22F0EACF1DF0E1CF1EF0E2CF10
:1000F0001FF0D9CF20F0DACF21F0F3CF28F0F4CFE2
:1001000029F0FACF2AF0F5CF2BF0F6CF2CF0F7CF6D
:100110002DF000C024F001C025F002C026F003C07D
:1001200027F09DA297EF00F09EB2DAEF01F024C015
:1001300000F025C001F026C002F027C003F022C065
:10014000E9FF1DC0EAFF1D8E1EC0E1FF1FC0E2FFD8
:1001500020C0D9FF21C0DAFF28C0F3FF29C0F4FF77
:100160002AC0FAFF2BC0F5FF2CC0F6FF2DC0F7FF09
:100170001A501CC0E0FF1BC0D8FF1000F76A8C0F9C
:10018000F66E010EF7220900F55012000001020080
:1001900004050706F76AA40FF66E010EF7220900A0
:1001A000F550120000C1814001C0804101C0804172
:1001B00000C1814001C0804100C1814000C1814037
:1001C00001C0804101C0804100C1814000C1814027
:1001D00001C0804100C1814001C0804101C0804117
:1001E00000C1814001C0804100C1814000C1814007
:1001F00001C0804100C1814001C0804101C08041F7
:1002000000C1814000C1814001C0804101C08041E6
:1002100000C1814001C0804100C1814000C18140D6
:1002200001C0804101C0804100C1814000C18140C6
:1002300001C0804100C1814001C0804101C08041B6
:1002400000C1814000C1814001C0804101C08041A6
:1002500000C1814001C0804100C1814000C1814096
:1002600001C0804100C1814001C0804101C0804186
:1002700000C1814001C0804100C1814000C1814076
:1002800001C0804101C0804100C1814000C1814066
:1002900001C0804100C1814001C0804101C0804156
:1002A00000C18140F76AB40FF66E020EF722090012
:1002B000F550120000C0C101C30302C2C60607C741
:1002C00005C5C404CC0C0DCD0FCFCE0E0ACACB0B86
:1002D000C90908C8D81819D91BDBDA1A1EDEDF1FB6
:1002E000DD1D1CDC14D4D515D71716D6D21213D3A6
:1002F00011D1D010F03031F133F3F23236F6F73756
:10030000F53534F43CFCFD3DFF3F3EFEFA3A3BFB45
:1003100039F9F83828E8E929EB2B2AEAEE2E2FEFF5
:100320002DEDEC2CE42425E527E7E62622E2E32365
:10033000E12120E0A06061A163A3A26266A6A76795
:10034000A56564A46CACAD6DAF6F6EAEAA6A6BAB05
:1003500069A9A86878B8B979BB7B7ABABE7E7FBF35
:100360007DBDBC7CB47475B577B7B67672B2B37325
:10037000B17170B0509091519353529296565797D5
:10038000559594549C5C5D9D5F9F9E5E5A9A9B5BC5
:1003900099595898884849894B8B8A4A4E8E8F4F75
:1003A0008D4D4C8C448485458747468682424383E5
:1003B00041818040030195A10CD00101963D05D0FB
:1003C000973D03D0030105D00101962BD8B4972B9C
:1003D000030195A50CD00101983D05D0993D03D0AE
:1003E000030105D00101982BD8B4992B030195A9DD
:1003F0000CD001019A3D05D09B3D03D0030105D0EF
:1004000001019A2BD8B49B2B03019380959381B063
:10041000958395B32ED0020105B102D0030129D0F6
:10042000652AD8B4662A010E6B26D8B06C2AD8B4D7
:100430006D2AD8B46E2A05A313D00301959197C1F4
:1004400054F096C153F054505A5C08E303E15950FC
:10045000535C04E254C05AF053C059F002010593B2
:1004600005B307D00101976B966B030195810201DB
:10047000058302010591030195A303D002010581C3
:1004800003019382959781B2958795B72ED002018B
:1004900005B502D0030129D0672AD8B4682A010E15
:1004A0006F26D8B0702AD8B4712AD8B4722A05A79A
:1004B00013D00301959599C156F098C155F0565047
:1004C0005C5C08E303E15B50555C04E256C05CF001
:1004D00055C05BF00201059705B707D00101996B84
:1004E000986B0301958502010587020105950301BB
:1004F00095A703D00201058503019384959B81B4E0
:10050000958B95BB2ED0020105B902D0030129D0ED
:10051000692AD8B46A2A010E7326D8B0742AD8B4CE
:10052000752AD8B4762A05AB13D0030195999BC1DF
:1005300058F09AC157F058505E5C08E303E15D50F3
:10054000575C04E258C05EF057C05DF00201059BA5
:1005500005BB07D001019B6B9A6B030195890201D2
:10056000058B02010599030195AB03D002010589B2
:1005700003010201042B0451640804E1046B01012E
:10058000A98902019E92000197EF00F081CF92F3BA
:10059000020106B90AD0030192B902D0020105D0C6
:1005A0000101A987AB6BAA6B020192C306F2F2901C
:1005B000000144EF00F0F29A0301935304E0D76A7C
:1005C000D66AF294F28A0001120002010851020870
:1005D0000AE1095308E10A5306E105BD04D0020E01
:1005E0000C5F058D01D0059D0A690969086B03013F
:1005F000936B0001E0DFF29444EF00F09EAAFED777
:10060000ABCF07F20201AECF01F007A302D0AB9847
:10061000AB880001120002010A5103019319946F83
:10062000036A94510001B6DD016E020109510118FF
:100630000A6F036A03019451000134DEE8CF09F226
:100640001200DCDF01C092F30101955322E0050E98
:10065000A86F475201E14CD00FC30EF310C30FF344
:1006600011C310F392C311F303010E5123080FE1DC
:100670000F51475C0CE110C303F01151485C07E1D6
:100680000350495C04E10101A987AB6BAA6B01012E
:100690002FD0020105BD2BD0085308E10A69096972
:1006A00092C30BF2082B0C6B0E6B17D0082D04D0E5
:1006B00092C30DF2082B11D0085102080EE10C3D37
:1006C00002D0FE0E0C6F0F0E0C25E96E020EEA6EC4
:1006D000D8B0EA2A92C3EFFF0C2B92C393F3000128
:1006E0009ADF010E0301936F000165DF0201010132
:1006F0009E9A000144EF00F003018D518F03F3CF68
:1007000001F0F4CF00F09003F35000268E518F03D8
:10071000F3500020026E00011200016603D0026651
:1007200002D007D0022A00C0EEFF012EFCD7022E15
:10073000FAD73AEF04F0030EEA6E880EE96EEF5036
:100740000DE0020E016E006A002EFED7012EFBD7CF
:10075000970E006E002EFED7EF2EF3D71200720E0A
:10076000D36ED350C150C00B1709C16EC050C00B1F
:100770000709C06EC08EC2800101A76BA86BA9914A
:10078000A993A995A997A999AB6BAA6B03011C6BB7
:100790001C51020856E3036A1CC302F0D8900236CB
:1007A00003360250530FE96E000E0320EA6EEC6A26
:1007B000ED52EF6A036A1CC302F0D890023603368A
:1007C0000250590FE96E000E0320EA6EEC68ED52FC
:1007D000EF68036A1CC302F0D89002360336025059
:1007E0005F0FE96E000E0320EA6EEC6AED52EF6ACD
:1007F000036A1CC302F0D890023603360250650F1C
:10080000E96E000E0320EA6EEC6AED52EF6A8E6B21
:100810001CC38DF3906B040E8F6F00016DDF0150D0
:100820006B0FE96E000E0220EA6EEE52EE52EC6A99
:10083000ED52EF6AED52EF6AED52EF6A03011C2BA5
:10084000A7D70101896B886B8B6B8A6B8D6B8C6B67
:100850008F6B8E6B916B906B936B926B876B946BC2
:10086000010EEA6EAC0EE96E006A026A580E016E65
:10087000000153D7020103690269000E0509CA6E1F
:10088000310ECB6E9D8295928C92F19E0E0E0301DD
:10089000886F000150DF938C0101956B81AC952B23
:1008A0000001CCEF14F00301256B24C303F02351A6
:1008B000D8B424072307266F03C027F3265302E189
:1008C000275333E022C303F02151E96E03C0EAFF4E
:1008D0002051036E1F511F2BD8B4202B286F03C04B
:1008E00029F3F2CF2AF3F29CF29E28C3A9FFA69C1B
:1008F000A69EA680A8502ABDF28C2ABFF28EEF6E6B
:1009000022C303F02151E96E03C0EAFFEFCF26F3C3
:1009100025C337F326C338F337513819016E01C0A8
:1009200025F3212BD8B4222BC0D725C301F0000119
:1009300050EF05F00301356B34C303F03351D8B4E5
:1009400034073307366F03C037F3365302E13753AA
:100950003DE032C303F03151E96E03C0EAFFEFCF4F
:1009600036F335C337F336C338F337513819016ED0
:1009700001C035F33051036E2F512F2BD8B4302BDB
:10098000366F03C037F33251036E3151312BD8B477
:10099000322BE96E03C0EAFFEFCF38F336C3A9FF6D
:1009A00038C3A8FFA69CA69EA684F250006EF29CB7
:1009B000F29E0F01550EA76EAA0EA76EA682A6B2D2
:1009C000FED7A6940050F2120301B6D735C301F04A
:1009D0000001FBEF04F003012E6B350E2D6F306B21
:1009E000020E2F6F2EC332F32DC331F3346B1E0E64
:1009F000336F00019FD701C02CF3A96A2CC3A8FF55
:100A0000A69CA69EA684F250006EF29CF29E0F0158
:100A1000550EA76EAA0EA76EA682A6B2FED7A69402
:100A20000050F21200011200960E0101A76F180E7D
:100A3000356E366A376A5A0E386E260E3A6E940E46
:100A4000396E3B6A3C6A3D6A3E6A3F6A406A416A67
:100A5000426A446A140E436E466A3C0E456E476A0B
:100A6000496A486A4A6A010E4B6E4C6E4D6E4F6A77
:100A7000640E4E6E516A506E526A0001ACDF120075
:100A800003011E6B350E1D6F206B020E1F6F1EC300
:100A900022F31DC321F3246B1E0E236F000103D725
:100AA00001C01CF3F2CF1DF3F29CF29EA96AA69C32
:100AB000A69EA680A85003011DBDF28C1DBFF28E1C
:100AC0001C5D03E00001B0DF03010001CEEF14F074
:100AD0009EAA02D093DDFCD7949A8B9A9D8A12002D
:100AE00094988B98F5DFC40ED56EC00EF21204EF09
:100AF00015F00101872B87510F0801E2876B030175
:100B00001C6B1C51070854E31C51030803E194902B
:100B10008B8002D094908B90036A1C510001BEEC34
:100B200000F003011D6F1D35006E0036FC0E00162F
:100B3000C250C30B0010C26E8E6B1CC38DF3906B42
:100B4000200E8F6F0001D8DD02C003F00150340F7A
:100B500003011D6F000E02201E6F036A010187C191
:100B600002F0D89002360336025003011D25016EB3
:100B70001E5103220150530FE96E000E0320EA6E4E
:100B8000C282C2B2FED7C3CFEFFFC4CFECFF036A6D
:100B90001CC302F0D890023603360250770FE96E7C
:100BA000000E0320EA6EEC6AED52EF6A1C2BA9D707
:100BB000000112000101963D04D0973D02D0546A15
:100BC000536A983D04D0993D02D0566A556A9A3DC1
:100BD00004D09B3D02D0586A576A923D03D0933DA2
:100BE00001D005D0959A8C8A922BD8B4932B020110
:100BF000023D03D0033D01D003D0022BD8B4032B18
:100C000003011A2B1A51640810E11A6B0101AA2B77
:100C1000D8B4AB2B4650AB5D07E303E14550AA5D6A
:100C200003E3A987AB6BAA6B0301162BD8B4172B70
:100C3000165170080EE1175117080BE1176B166B70
:100C40000101903D03D0913D01D003D0902BD8B449
:100C5000912B0101A9A304D0A9930301196B186B6F
:100C60000301182BD8B4192B4350185D07E14450E9
:100C7000195D04E1196B186B0101A9810101A753EA
:100C800003E194948B9403D094948B84A707A85386
:100C900003E194968B9603D094968B86A807959A39
:100CA0008C9A00011DEF15F0F29CF29EF2BEFDD76A
:100CB00003018E6B88C38DF3906B040E8F6F000160
:100CC0001BDD02C003F001506B0FE96E000E022025
:100CD000EA6EEFCF00F0ECCF01F0ECCF02F0ECCFFA
:100CE00003F003C08CF302C08BF301C08AF300C091
:100CF00089F3C00EF21289C300F08AC301F08BC3DE
:100D000002F08CC303F0120003018A6B896B8B6BBA
:100D10008B510F082BE38E6B88C38DF3906B200EE5
:100D20008F6F0001E9DC02C003F00150340F0301B2
:100D30008C6F000E02208D6F036A8BC302F0D89077
:100D40000236033602508C25016E8D51032201506C
:100D5000530FE96E000E0320EA6EECCF03F0ED5264
:100D6000EF50892703508A238B2BD2D7080E892571
:100D70008C6F000E8A218D6F8D31036E8C31026E67
:100D80000332023203320232033202320F0E0316F2
:100D900002C001F003C002F00001120003018D69DE
:100DA0008C698A518A07000A26E089C303F08851BA
:100DB000882BD8B4892BE96E03C0EAFFEF508C1B57
:100DC0008B6B8B51070816E38C51010B006E036A85
:100DD000005003100AE0D8908D318F6F8C31010ADA
:100DE0008C6F8F51A00A8D6F03D0D8908D338C33C8
:100DF0008B2BE7D7D6D78CC301F08DC302F000014F
:100E00000CEF09F09EA8FED7AD6E1200F29CF29E88
:100E1000F2BEFDD7666A656A686A676A6A6A696A65
:100E20005A6859685C685B685E685D68606A5F6A9A
:100E3000626A616A646A636A0101936B926BC00EB5
:100E4000F21200011200320E0101A76F230E0301FE
:100E50001C6F38C01DF33AC01EF339C01FF3620E79
:100E6000206F170E216F8FC122F303018EC123F370
:100E70000301806B80510208D8A03BD180510C0D3A
:100E8000F350080F816F036A81511C0F016E030E2E
:100E9000032203C089F3036A80C302F0D8900236AC
:100EA00003360250650FE96E000E0320EA6EECCFA8
:100EB0008BF3ED52EFCF8AF389C3EAFF01C0E9FF5C
:100EC0008BC3EFFF010E8125036A1C0F016E030E19
:100ED000032203C089F3036A80C302F0D89002366C
:100EE00003360250650FE96E000E0320EA6EECCF68
:100EF0008BF3ED52EFCF8AF389C3EAFF01C0E9FF1C
:100F00008AC3EFFF020E8125036A1C0F016E030ED8
:100F1000032203C089F3036A80C302F0D89002362B
:100F200003360250530FE96E000E0320EA6EECCF39
:100F30008BF3ED52EFCF8AF389C3EAFF01C0E9FFDB
:100F40008BC3EFFF030E8125036A1C0F016E030E96
:100F5000032203C089F3036A80C302F0D8900236EB
:100F600003360250530FE96E000E0320EA6EECCFF9
:100F70008BF3ED52EFCF8AF389C3EAFF01C0E9FF9B
:100F80008AC3EFFF040E8125036A1C0F016E030E56
:100F9000032203C089F3036A80C302F0D8900236AB
:100FA00003360250590FE96E000E0320EA6EECCFB3
:100FB0008BF3ED52EFCF8AF389C3EAFF01C0E9FF5B
:100FC0008BC3EFFF050E8125036A1C0F016E030E14
:100FD000032203C089F3036A80C302F0D89002366B
:100FE00003360250590FE96E000E0320EA6EECCF73
:100FF0008BF3ED52EFCF8AF389C3EAFF01C0E9FF1B
:101000008AC3EFFF060E8125036A1C0F016E030ED3
:10101000032203C089F3036A80C302F0D89002362A
:10102000033602505F0FE96E000E0320EA6EECCF2C
:101030008BF3ED52EFCF8AF389C3EAFF01C0E9FFDA
:101040008BC3EFFF070E8125036A1C0F016E030E91
:10105000032203C089F3036A80C302F0D8900236EA
:10106000033602505F0FE96E000E0320EA6EECCFEC
:101070008BF3ED52EFCF8AF389C3EAFF01C0E9FF9A
:101080008AC3EFFF80C388F300010EDE03C087F33D
:1010900002C086F301C085F300C084F3080E03018B
:1010A0008125036A1C0FE96E030E0320EA6E87C3D5
:1010B000EFFF090E8125036A1C0FE96E030E032062
:1010C000EA6E86C3EFFF0A0E8125036A1C0FE96EE4
:1010D000030E0320EA6E85C3EFFF0B0E8125036A22
:1010E0001C0FE96E030E0320EA6E84C3EFFF802B12
:1010F000C1D6806B8051070875E38051060DF3500F
:101100002C0F816F8E6B80C38DF3906B200E8F6FD1
:1011100000017CEC03F002C003F00150340F030126
:10112000886F000E0220896F036A010187C102F0F7
:10113000D89002360336025003018825016E89518A
:1011400003220150530FE96E000E0320EA6EECCF2C
:1011500003F0ED52EFCF82F303C083F3036A8151B2
:101160001C0FE96E030E0320EA6E83C3EFFF010E2E
:101170008125036A1C0FE96E030E0320EA6E82C309
:10118000EFFF80C388F30001BFDD02C083F301C01D
:1011900082F3020E03018125036A1C0FE96E030E20
:1011A0000320EA6E83C3EFFF030E8125036A1C0F41
:1011B000E96E030E0320EA6E82C3EFFF040E812561
:1011C000036A1C0FE96E030E0320EA6EEF6A050E38
:1011D0008125036A1C0FE96E030E0320EA6EEF6A95
:1011E000802B88D791C178F3030190C179F3030173
:1011F000F29CF29EF2BEFDD793C17AF3030192C135
:101200007BF30301C00EF212030E896F1D0E886F6F
:101210005F0E8A6F0001C2D502C07FF301C07EF36A
:1012200003017FC37CF37EC37DF395928C9247527A
:1012300006E10E0E886F00019BEC03F00301806B4A
:10124000805161080FE3036A80511C0FE96E030EA1
:101250000320EA6EEFCF88F388510001D3DD03014C
:10126000802BEED7475202E195928C8201018E2BA2
:10127000D8B48F2B0001CADD0101936B926B000182
:101280002EEF15F0020105BD04D0000E016E0AD04C
:1012900006D00DAF04D00FC20EF2010E0C6F059DEB
:1012A000010E016E000131EF13F0F29CF29EF2BECE
:1012B000FDD76E6A6D6A6C6A6B6A726A716A706A6F
:1012C0006F6A766A756A746A736AC00EF21286EF84
:1012D0000EF00101896B886B8B6B8A6B8D6B8C6B4D
:1012E0000001A6EF0EF00301305309E1000E83B2B6
:1012F000010E036A016E03C002F012D00AD0302D35
:1013000008D0000E83B4010E036A016E03C002F020
:1013100007D0000E83B6010E036A016E03C002F00F
:101320000001120003012F5303E12E51630819E25B
:101330002F5317E12E518F0814E3640E2E5F000E19
:101340002F5BD8902E35036AAC0FE96E010E032097
:10135000EA6EEFCF01F0E92AEF50E906026EABEF3B
:101360000FF02E51006E2F51036E035005E1005215
:101370000001D8B4A6D20301035006E1010E005CBF
:101380000001D8B4A5D20301035006E1020E005CAF
:101390000001D8B4A4D20301035006E1030E005C9F
:1013A0000001D8B4A3D20301035006E1040E005C8F
:1013B0000001D8B4A2D20301035006E1050E005C7F
:1013C0000001D8B4AED20301035006E1060E005C62
:1013D0000001D8B4ADD20301035006E1070E005C52
:1013E0000001D8B4ACD20301035006E1080E005C42
:1013F0000001D8B4ABD20301035006E1090E005C32
:101400000001D8B4AAD20301035006E10A0E005C21
:101410000001D8B4A9D20301035006E10B0E005C11
:101420000001D8B4B6D20301035006E10C0E005CF3
:101430000001D8B4B5D20301035006E10D0E005CE3
:101440000001D8B4B4D20301035006E10E0E005CD3
:101450000001D8B4B3D20301035006E10F0E005CC3
:101460000001D8B4B2D20301035006E1100E005CB3
:101470000001D8B4B1D20301035006E1110E005CA3
:101480000001D8B4BED20301035006E1120E005C85
:101490000001D8B4BDD20301035006E1130E005C75
:1014A0000001D8B4CCD20301035006E1140E005C55
:1014B0000001D8B4D0D20301035006E1150E005C40
:1014C0000001D8B4CFD20301035006E1160E005C30
:1014D0000001D8B4DED20301035006E1170E005C10
:1014E0000001D8B4E3D20301035006E1180E005CFA
:1014F0000001D8B4E2D20301035006E1190E005CEA
:101500000001D8B4F1D20301035006E11A0E005CC9
:101510000001D8B4F6D20301035006E11B0E005CB3
:101520000001D8B4F5D20301035006E11C0E005CA3
:101530000001D8B404D30301035006E11D0E005C82
:101540000001D8B409D30301035006E11E0E005C6C
:101550000001D8B408D30301035006E11F0E005C5C
:101560000001D8B417D30301035006E1200E005C3C
:101570000001D8B41CD30301035006E1210E005C26
:101580000001D8B41BD30301035006E1220E005C16
:101590000001D8B42AD30301035006E1230E005CF6
:1015A0000001D8B42FD30301035006E1240E005CE0
:1015B0000001D8B42ED30301035006E1250E005CD0
:1015C0000001D8B43DD30301035006E1260E005CB0
:1015D0000001D8B442D30301035006E1270E005C9A
:1015E0000001D8B441D30301035006E1280E005C8A
:1015F0000001D8B450D30301035006E1290E005C6A
:101600000001D8B455D30301035006E12A0E005C53
:101610000001D8B454D30301035006E12B0E005C43
:101620000001D8B459D30301035006E12C0E005C2D
:101630000001D8B459D30301035006E12D0E005C1C
:101640000001D8B459D30301035006E12E0E005C0B
:101650000001D8B459D30301035006E12F0E005CFA
:101660000001D8B459D30301035006E1300E005CE9
:101670000001D8B459D30301035006E1310E005CD8
:101680000001D8B459D30301035006E1320E005CC7
:101690000001D8B459D30301035006E1330E005CB6
:1016A0000001D8B459D30301035006E1340E005CA5
:1016B0000001D8B45DD30301035006E1350E005C90
:1016C0000001D8B462D30301030E035C06E1E80E07
:1016D000005C0001D8B466D30301030E035C06E18D
:1016E000E90E005C0001D8B465D30301030E035C6E
:1016F00006E1EA0E005C0001D8B463D30301030ED7
:10170000035C06E1EB0E005C0001D8B461D3030179
:10171000030E035C06E1EC0E005C0001D8B45FD35D
:101720000301030E035C06E1ED0E005C0001D8B47A
:101730005DD30301030E035C06E1EE0E005C0001C5
:10174000D8B45BD30301030E035C06E1EF0E005C2B
:101750000001D8B45AD30301030E035C06E1F00E76
:10176000005C0001D8B459D30301030E035C06E109
:10177000F10E005C0001D8B458D30301030E035CE2
:1017800006E1F20E005C0001D8B456D30301030E4B
:10179000035C06E1F30E005C0001D8B455D30301ED
:1017A000030E035C06E1F40E005C0001D8B453D3D1
:1017B0000301030E035C06E1F50E005C0001D8B4E2
:1017C00052D30301030E035C06E1F60E005C000138
:1017D000D8B451D30301030E035C06E1F70E005C9D
:1017E0000001D8B450D30301030E035C06E1F80EE8
:1017F000005C0001D8B44FD30301030E035C06E183
:10180000F90E005C0001D8B44DD30301030E035C54
:1018100006E1FA0E005C0001D8B44BD30301040EBC
:10182000035C06E14C0E005C0001D8B44AD303010E
:10183000040E035C06E14D0E005C0001D8B449D3F0
:101840000301040E035C06E14E0E005C0001D8B4F7
:1018500048D30301040E035C06E14F0E005C000157
:10186000D8B447D30301040E035C06E1500E005CBC
:101870000001D8B446D30301040E035C06E1510E07
:10188000005C0001D8B445D30301040E035C06E1FB
:10189000520E005C0001D8B444D30301040E035C73
:1018A00006E1530E005C0001D8B443D30301040EDB
:1018B000035C06E1540E005C0001D8B442D303017E
:1018C00046D365C001F066C002F0030144D30001B5
:1018D0005350016E5450026E03013DD30001595024
:1018E000016E5A50026E030136D300015F50016E43
:1018F0006050026E03012FD300010301886B0001C9
:1019000054EC06F003C015F302C014F301C013F346
:1019100000C012F303011251016E1351026E1BD36A
:10192000000103011451016E1551026E14D3000120
:101930006750016E6850026E03010DD300015550CF
:10194000016E5650026E030106D300015B50016E1A
:101950005C50026E0301FFD200016150016E6250C3
:10196000026E0301F8D20001010E0301886F00012D
:1019700054EC06F003C015F302C014F301C013F3D6
:1019800000C012F303011251016E1351026EE3D233
:10199000000103011451016E1551026EDCD20001E9
:1019A0006950016E6A50026E0301D5D20001575092
:1019B000016E5850026E0301CED200015D50016EDF
:1019C0005E50026E0301C7D200016350016E645085
:1019D000026E0301C0D20001020E0301886F0001F4
:1019E00054EC06F003C015F302C014F301C013F366
:1019F00000C012F303011251016E1351026EABD2FB
:101A0000000103011451016E1551026EA4D20001B0
:101A1000036A01018751026ED890023603360250E4
:101A2000870FE96E000E0320EA6EECCF03F0ED5253
:101A3000EF50016E0350026E03018DD200010301CD
:101A4000886B000184EC06F00150016E0250026EBA
:101A5000030181D200017750016E7850026E0301BC
:101A60007AD20001036A01018751026ED8900236D2
:101A700003360250A70FE96E000E0320EA6EECCF8A
:101A800003F0ED52EF50016E0350026E030163D27A
:101A90000001010E0301886F000184EC06F0015083
:101AA000016E0250026E030156D200017950016EA0
:101AB0007A50026E03014FD20001036A010187517F
:101AC000026ED890023603360250C70FE96E000E40
:101AD0000320EA6EECCF03F0ED52EF50016E03509D
:101AE000026E030138D20001020E0301886F00016B
:101AF00084EC06F00150016E0250026E03012BD2FD
:101B000000017B50016E7C50026E030124D2000163
:101B1000036A01018751026ED890023603360250E3
:101B2000E70FE96E000E0320EA6EECCF03F0ED52F2
:101B3000EF50016E0350026E03010DD20001030E3F
:101B40000301886F000184EC06F00150016E025021
:101B5000026E030100D200017D50016E7E50026EC4
:101B60000301F9D10001036A01018751026ED89087
:101B7000023603360250070FE96E010E0320EA6EAB
:101B8000ECCF03F0ED52EF50016E0350026E0301F3
:101B9000E2D10001040E0301886F000184EC06F01D
:101BA0000150016E0250026E0301D5D100017F5039
:101BB000016E8051026E0301CED10001036A010162
:101BC0008751026ED890023603360250270FE96E15
:101BD000010E0320EA6EECCF03F0ED52EF50016EE0
:101BE0000350026E0301B7D10001050E0301886F97
:101BF000000184EC06F00150016E0250026E0301F8
:101C0000AAD100018151016E8251026E0301A3D15C
:101C10000001036A01018751026ED8900236033633
:101C20000250470FE96E010E0320EA6EECCF03F07D
:101C3000ED52EF50016E0350026E03018CD1000192
:101C4000060E0301886F000184EC06F00150016E5E
:101C50000250026E03017FD100018351016E845155
:101C6000026E030178D10001036A01018751026EFF
:101C7000D890023603360250670FE96E010E03203A
:101C8000EA6EECCF03F0ED52EF50016E0350026E9E
:101C9000030161D10001070E0301886F000184EC8C
:101CA00006F00150016E0250026E030154D1000192
:101CB0008551016E8651026E03014DD10001010173
:101CC0008F51036E8E518E2BD8B48F2B016E035023
:101CD000026E030140D1000101019251016E935146
:101CE000026E030138D1000101019051016E915142
:101CF000026E030130D1000106EC07F0000E016E08
:101D0000026E030128D1000155EF09F0000E016EAB
:101D1000026E030120D1000101018851016E895139
:101D2000026E030118D1000101018A51016E8B512D
:101D3000026E030110D1000101018C51016E8D5121
:101D4000026E030108D1000169EF09F0000E016E77
:101D5000026E030100D100010301306B000173EC3E
:101D600009F00150016E0250026E0301F4D000012F
:101D7000010E0301306F000173EC09F00150016E98
:101D80000250026E0301E7D00001020E0301306F22
:101D9000000173EC09F00150016E0250026E030164
:101DA000DAD00001036A3850016E0350026E03015D
:101DB000D2D000013950016E3A50026E0301CBD0EF
:101DC0000001580E016E000E026E0301C4D0000126
:101DD000470E016E000E026E0301BDD00001580EC9
:101DE000016E000E026E0301B6D00001020E016EFC
:101DF000000E026E0301AFD00001036A3550016E80
:101E00000350026E0301A7D00001036A3650016E31
:101E10000350026E03019FD00001036A3750016E28
:101E20000350026E030197D000014550016E4650E9
:101E3000026E030190D00001036A4750016E035007
:101E4000026E030188D000014850016E4950026EB5
:101E5000030181D00001036A4A50016E0350026EF3
:101E6000030179D00001036A4B50016E0350026EEA
:101E7000030171D00001036A4C50016E0350026EE1
:101E8000030169D00001036A4D50016E0350026ED8
:101E9000030161D000014E50016E4F50026E0301EC
:101EA0005AD000015050016E5150026E030153D0C0
:101EB0000001036A5250016E0350026E03014BD0C1
:101EC0000001036A3B50016E0350026E030143D0D0
:101ED0000001036A3C50016E0350026E03013BD0C7
:101EE0000001036A3D50016E0350026E030133D0BE
:101EF0000001036A3E50016E0350026E03012BD0B5
:101F00000001036A3F50016E0350026E030123D0AB
:101F10000001036A4050016E0350026E03011BD0A2
:101F20000001036A4150016E0350026E030113D099
:101F30000001036A4250016E0350026E03010BD090
:101F400000014350016E4450026E030104D0FF0EA5
:101F5000016E026E00D000011200030124511F081F
:101F60000CE125514E0809E12651200806E12751D0
:101F70004E0803E1010E016E48D0255303E12451C0
:101F8000320808E2275306E12651360803E3010E22
:101F9000016E3BD0255103080FE2FF0A03E12451F3
:101FA0004B080AE22751040807E303E126515508CC
:101FB00003E3010E016E29D0255102080FE2FF0A4A
:101FC00003E12451E7080AE22751030807E303E18C
:101FD0002651FB0803E3010E016E17D0255303E1E0
:101FE0002451630808E2275306E12651900803E3D1
:101FF000010E016E0AD0275306E12651360803E38D
:10200000010E016E02D0000E016E0001B1EF13F05F
:1020100003012E51000102EC07F0196AF2BC198C81
:10202000F29CF2BE198EF29E2EC393F30BEC03F0DA
:1020300019BCF28C19BEF28E365205E1450E006EC7
:10204000002EFED705D0220E006E002EFED7000017
:10205000120002010A690969059D9D9A949A8B8A6A
:1020600094988B88365205E1F30E006E002EFED751
:1020700004D0790E006E002EFED72CC32EF3000183
:10208000C7DF2DC32EF3C4DF12000AC22DF309C22D
:102090002CF32DC32EF3BCDF2CC32EF3B9DFACA27F
:1020A000FED7365205E1F30E006E002EFED704D0A7
:1020B000790E006E002EFED768EC05F094988B9890
:1020C000949A8B9A02010A690969000112000301BE
:1020D00023518009266F24C327F322C32CF32D6FCD
:1020E0000001B7DF25C32EF393DFCFDF120023C338
:1020F0002CF322C32DF3ADDFD890030126352C6FCE
:1021000027352D6F2CC32EF3000182DF0301296BCD
:10211000286B2951275D23E303E12651285D1FE247
:10212000285124252C6F295125212D6F2F6F2CC369
:102130002EF3000192EC09F002C02BF301C02AF348
:102140002BC32CF32BC32EF363DF2AC32CF32AC338
:102150002EF35EDF0301282BD8B4292BDAD7000138
:1021600094DFD3EF13F0036A03012C514B0FE96E98
:10217000000E0320EA6EEF50010803E1030E016E2A
:102180001DD02C5307E12D5302E18C9201D08C829B
:10219000959212D02C2D07D02D5302E18C9401D0B2
:1021A0008C84959409D02C51020806E12D5302E14C
:1021B0008C9601D08C869596000E016E000112005F
:1021C000010194531BE003012851E80809E129515A
:1021D000030806E12AC338F0000E016E02D20DD0CA
:1021E0002851E9080AE12951030807E12BC33AF015
:1021F0002AC339F0000E016EF4D101010301285108
:10220000006E2951036E035006E1330E005C00019D
:10221000D8B4EAD00301035006E1340E005C00019B
:10222000D8B4ECD00301035006E1350E005C000188
:10223000D8B4F0D00301030E035C06E1EE0E005C9F
:102240000001D8B4F3D00301030E035C06E1EF0EE6
:10225000005C0001D8B4F6D00301030E035C06E174
:10226000F00E005C0001D8B4FFD00301030E035C44
:1022700006E1F10E005C0001D8B402D10301030EA7
:10228000035C06E1F20E005C0001D8B4FFD003014C
:10229000030E035C06E1F30E005C0001D8B40BD121
:1022A0000301030E035C06E1F40E005C0001D8B4E8
:1022B00008D10301030E035C06E1F50E005C00018A
:1022C000D8B40BD10301030E035C06E1F60E005CEB
:1022D0000001D8B40ED10301030E035C06E1F70E32
:1022E000005C0001D8B411D10301030E035C06E1C8
:1022F000F80E005C0001D8B414D10301030E035C96
:1023000006E1F90E005C0001D8B41CD10301030EF4
:10231000035C06E1FA0E005C0001D8B419D1030198
:10232000040E035C06E1540E005C0001D8B41CD11D
:102330000301040E035C06E14C0E005C0001D8B4FE
:102340001BD10301040E035C06E14D0E005C00018D
:10235000D8B412D10301040E035C06E14E0E005CFA
:102360000001D8B409D10301040E035C06E14F0E4D
:10237000005C0001D8B400D10301040E035C06E147
:10238000500E005C0001D8B4F7D00301040E035CCA
:1023900006E1510E005C0001D8B4EED00301040E3A
:1023A000035C06E1520E005C0001D8B4E5D00301E5
:1023B000040E035C06E1530E005C0001D8B4DCD0CF
:1023C0000301070E035C06E1CF0E005C0001D8B4E8
:1023D000E1D003014E0E035C06E11F0E005C00011C
:1023E000D8B4E5D00301F8D003012C6B2AC32DF338
:1023F0000001B9DE01500301F4D00001010E030118
:102400002C6F2AC32DF30001AEDE0150016E0301D3
:10241000E8D00001020E03012C6F2AC32DF3000146
:10242000A2DE0150016E0301DCD0000103012B5339
:1024300003E12A517F0803E2030E016ED2D02AC3C2
:1024400035F0CDD003012B5303E12A51010803E2FB
:10245000030E016EC6D02A51365C02E12B5303E015
:102460000101A9850301BBD003012B5303E12A51CC
:10247000010803E2030E016EB4D02AC337F0AFD0D7
:102480002BC346F02AC345F00301A9D003012A5308
:1024900002E12B530DE02B5303E12A51400805E2E2
:1024A0002B5303E12A515A0803E2030E016E99D01F
:1024B0002AC347F094D02BC349F02AC348F0030144
:1024C0008ED003012B5303E12A51010803E2030ECE
:1024D000016E87D02AC34AF082D003012B5303E157
:1024E0002A51010803E2030E016E7BD02AC34BF090
:1024F00076D003012B5303E12A51010803E2030EB6
:10250000016E6FD02AC34CF06AD003012B5303E154
:102510002A51010803E2030E016E63D02AC34DF075
:102520005ED003012B51000808E2FF0A03E12A51A3
:10253000000803E2030E016E54D02BC34FF02AC3F0
:102540004EF04DD02BC351F02AC350F0030147D0B9
:1025500003012B5303E12A51010803E2030E016E2C
:1025600040D02AC352F03BD00101A9832BC344F0D1
:102570002AC343F0030133D04C0E0301285F040E3D
:10258000295B3B0E2825E96E000E2921EA6E2AC33D
:10259000EFFF25D003012A2D02D02B5303E0030EB9
:1025A000016E1FD00001EBEC04F0030118D0030111
:1025B0002A510A0803E12B51070806E00101946B38
:1025C000030E016E03010DD0010E0101946FC80EC0
:1025D000A76FA86B030103D0020E016E02D0000E9C
:1025E000016E0001120024C32CF3060E03012D6FAF
:1025F00000012FDD26C329F326C32EF309DD25C3F1
:1026000029F325C32EF304DD28C329F328C32EF3B1
:10261000FFDC27C329F327C32EF3FADC36DD0DEFE9
:1026200014F022C32CF3100E03012D6F000111DDF5
:1026300024C327F324C32EF3EBDC23C327F323C3E4
:102640002EF3E6DC26C327F326C32EF3E1DC25C3F5
:1026500027F325C32EF3DCDC18DD6FEF14F042EF17
:1026600009F00152D8B45DD102010B514E5C43E137
:102670004F5241E10D51030803E00D5104083BE1C5
:102680000FC203F01051505C36E10350515C33E14E
:102690000C51040830E10301226B22512A0821E386
:1026A000D8902235036AAC0F016E010E032201C0DF
:1026B00023F303C024F3266B22C325F326C32FF391
:1026C00022C32EF3000192EC09F024C3EAFF23C3D6
:1026D000E9FF02C0ECFFED5201C0EFFF0301222B26
:1026E000DCD7000106EC07F00201036B026B960ECB
:1026F0000101A76F020135500B5DD8A406D101017D
:10270000883D03D0893D01D003D0882BD8B4892BD4
:10271000140EA76FA86B02010D51030A000108E017
:10272000070A06E0020A41E0160AD8B478D0D9D0E8
:102730000FC21DF310C21CF311C21FF312C21EF30D
:1027400003011E511C25226F1F511D21236F1DC324
:1027500025F31CC324F3276F22C326F30001ADEF3A
:102760000FF0015213E135C022F30301246B0DC2B7
:1027700023F3020E256F0001AADC01018D6B020E0E
:102780008C6F640EA86FA76B0FD000010DC222F3EF
:1027900035C023F31DC325F31CC324F31FC327F344
:1027A0001EC326F3A4D40101AED00FC21DF310C284
:1027B0001CF311C223F312C222F31DC329F31CC35D
:1027C00028F311C22BF312C22AF3FADC01C020F362
:1027D0000301205312E035C022F3246B0DC223F312
:1027E00020C325F3000173DC01018D6B20C38CF144
:1027F000640EA86FA76B12D0030111C223F312C29B
:1028000022F335C024F31DC326F31CC325F311C2E4
:1028100028F312C227F30001E6D6010174D00FC2DB
:102820001DF310C21CF311C21FF312C21EF30301E9
:10283000216B1F5303E11E51215D43E221511C25F1
:10284000226F000E1D21236FD8902135050F0F0F29
:10285000E96E020EEA6ED8B0EA2AEFCF24F3D890E0
:102860002135060F0F0FE96E020EEA6ED8B0EA2A84
:10287000EFCF25F324C327F325C326F323C329F37E
:1028800022C328F324C32BF325C32AF3000198DCC9
:1028900001C020F30301205312E035C022F3246B62
:1028A0000DC223F320C325F3000111DC01018D6B60
:1028B00020C38CF1640EA86FA76B030102D0212BFB
:1028C000B8D720530CE135C022F31DC324F31CC339
:1028D00023F31FC326F31EC325F30001A2D6010173
:1028E00012D035C022F30301246B0DC223F3010E75
:1028F000256F000167EC10F001018D6B010E8C6FEC
:10290000640EA86FA76B0DD0020101018A3D03D0B0
:102910008B3D01D003D08A2BD8B48B2B140EA76F1C
:10292000A86F000132EF15F0F86AF1949F82F190E0
:102930009F9AD08E078EEA6AE96A700ED36ED350E2
:102940000201046B05910593059505970599059B73
:102950000669076BB8960C0EAF6EA20EAC6E900EA9
:10296000AB6E059D086B0301176B166B196B186B2B
:102970001A6BC150C00B0F09C16E070EB46E2F6ADF
:10298000306A0E6B0F6B106B116B126B136B146B49
:10299000156B0001AFEF03F040EF05F035507F08F5
:1029A00003E33650010802E214EC05F0525201E054
:1029B000F28694968B86FA0E0301886F00019BECD9
:1029C00003F094948B84FA0E0301886F00019BEC52
:1029D00003F094968B96FA0E0301886F00019BEC2E
:1029E00003F094948B940101955309E0B8960C0E72
:1029F000AF6EA20EAC6E9D8AC00EF2120CD0AB8EE2
:102A0000AB88000170EF05F0362C05D0B896190E92
:102A1000AF6EA60EAC6E03011B6B1B511D0806E3C7
:102A2000000179EC05F003011B2BF7D7040001012D
:102A3000A9A905D00001DAEF05F00101A999A9A122
:102A400005D0A991000179EC05F00101955308E04A
:102A5000A9A705D0A997000123EF07F0010116D01F
:102A60000001FDD50101A9A511D0A995365208E1B3
:102A7000B896190EAF6EA60EAC6E010E366E06D06D
:102A8000B8960C0EAF6EA20EAC6E366A0301CED7AE
:022A9000030041
:020000040030CA
:0E00000000C81E1F000781000FC00FE00F4058
:00000001FF
;PIC18F4523
;CRC=91E3  CREATED="05-May-15 18:59"
